:100000000C94CA020C9411030C9411030C94110368
:100010000C9411030C9411030C9411030C94110310
:100020000C9411030C9411030C9462200C941E2068
:100030000C94B1280C9411030C9411030C9411032B
:100040000C9411030C9411030C9411030C941103E0
:100050000C9411030C948D280C9411030C9411032F
:100060000C9411030C9411030C9411030C941103C0
:100070000C9411030C9411030C9411030C941103B0
:100080000C9411030C9411030C9411030C941103A0
:100090000C9411030C9411030C9411030C94110390
:1000A0000C9411030C9411030C9411030501090223
:1000B000A10185020901A100050919012905150001
:1000C00025019505750181029501750381010501E1
:1000D000093009311581257F950275088106093897
:1000E0001581257F950175088106050C0A380215D2
:1000F00081257F950175088106C0C005010980A191
:1001000001850319012AB700150126B7009501756D
:10011000108100C0050C0901A101850419012AA064
:1001200002150126A002950175108100C005010984
:1001300006A1018505050719E029E71500250195A8
:1001400008750181020507190029EF1500250195A1
:10015000F0750181020508190129059505750191C0
:1001600002950175039101C00660FF0961A10109B3
:1001700062150026FF0095207508810209631500AD
:1001800026FF00952075089102C005010906A1010E
:10019000050719E029E71500250195087501810279
:1001A0009501750881010507190029FF150026FF33
:1001B0000095067508810005081901290595057542
:1001C000019102950175039101C000010101010136
:1001D0000101010102020202020202020203030300
:1001E00003030303030404040404040405050505D0
:1001F0000506060606060707070707080808080990
:100200000909090A0A0A0B0B0B0C0C0C0D0D0D0E3B
:100210000E0E0F0F0F1010111111121213131414D0
:10022000151516161717181819191A1A1B1B1C1D45
:100230001D1E1E1F2020212222232424252626279E
:100240002829292A2B2C2D2D2E2F303132323334D0
:1002500035363738393A3B3C3D3E3F4041424344D6
:1002600045464748494A4C4D4E4F505153545556B8
:1002700058595A5B5D5E5F616264656668696B6C64
:100280006D6F7072737577787A7B7D7E80828385DF
:1002900087888A8C8E8F91939596989A9C9EA0A21F
:1002A000A3A5A7A9ABADAFB1B3B5B7BABCBEC0C229
:1002B000C4C6C9CBCDCFD1D4D6D8DBDDDFE2E4E7ED
:1002C000E9EBEEF0F3F5F8FAFDFFFFAA7F554022C7
:1002D00023252628292A2C2D2F3032333536383A3B
:1002E0003B3D3E4042434547494A4C4E5051535591
:1002F00057595A5C5E6062646668696B6D6F7173B2
:100300007577797B7D7F81838587898A8C8E9092B2
:100310009496989A9C9E9FA1A3A5A7A8AAACAEAFBD
:10032000B1B3B4B6B8B9BBBCBEBFC1C2C3C5C6C702
:10033000C9CACBCCCDCED0D1D2D2D3D4D5D6D7D7B3
:10034000D8D9D9DADADBDBDBDCDCDCDCDCDDDDDDFB
:10035000DDDCDCDCDCDCDBDBDBDADAD9D9D8D7D7F7
:10036000D6D5D4D3D2D2D1D0CECDCCCBCAC9C7C6A4
:10037000C5C3C2C1BFBEBCBBB9B8B6B4B3B1AFAEE2
:10038000ACAAA8A7A5A3A19F9E9C9A989694929088
:100390008E8C8A89878583817F7D7B797775737160
:1003A0006F6D6B6968666462605E5C5A595755533D
:1003B00051504E4C4A4947454342403E3D3B3A38F6
:1003C00036353332302F2D2C2A292826252322AAF0
:1003D000002900A900B200CA5CC25CC95C2A0053B3
:1003E000005400550056005F006000610057005C3B
:1003F000005D005E00000059005A005B005800627A
:10040000002E006300000001000100010001000156
:1004100000010001000100010001000100010001D4
:1004200000010001000100010001000100000001C5
:1004300000010001000100010001000100000000B6
:1004400000000000000000000000000000000000AC
:100450000000007E0F00D4FFFFFFC70000007800FF
:10046000000000000000002A2B280000000000000F
:100470000000000000000000000029000000002C27
:100480001E3420212224342627252E362D373827C6
:100490001E1F202122232425263333362E37381FD2
:1004A0000405060708090A0B0C0D0E0F1011121394
:1004B0001415161718191A1B1C1D2F3130232D3532
:1004C0000405060708090A0B0C0D0E0F1011121374
:1004D0001415161718191A1B1C1D2F3130354C32E4
:1004E000190A00047F3F1F643214643214783C1EE2
:1004F0001E140A0509025B00030100A0FA090400AA
:10050000000103010100092111010001224000073F
:1005100005810308000A0904010002030000000924
:10052000211101000122220007058203200001079A
:100530000503032000010904020001030000000973
:10054000211101000122BC000705840320000A12CA
:10055000011001000000086B41AA00010001020324
:1005600001040330000000120341004B005F004D06
:10057000004100470049004300000012034100749D
:10058000006C0061006E00740069007300000004DC
:100590000309040011241FBECFEFDAE0DEBFCDBF98
:1005A00004B603FE27C080919F069091A006A091FB
:1005B000A106B091A2068730904BA740B04BD1F472
:1005C00010929F061092A0061092A1061092A20609
:1005D00014BE84B7877F84BF0FB6F894A895809126
:1005E0006000886180936000109260000FBEE0E0C0
:1005F000F8E3099526E0AAEAB1E001C01D92AF39FF
:10060000B207E1F711E0A0E0B1E0E0E1F5E502C0FA
:1006100005900D92AA3AB107D9F70E9450210C9487
:100620003B2A0C940000E8EDF0E080818E7F80830F
:100630001092E2001092DA001092E100A0EEB0E019
:100640008C9181608C9380818F77808319BCA7ED1A
:10065000B0E08C918E7F8C9380818F7E808310920E
:10066000650608952091E4003091E50095E6A90122
:100670002091EC00822F817020FF06C08091E8005D
:1006800080FF06C080E008952091E80022FD1AC096
:1006900080919A06882389F0853089F08091EB005B
:1006A00085FD0FC02091E4003091E500421753070B
:1006B000F9F29150E1F684E0089582E0089583E034
:1006C000089581E00895EF92FF920F931F93CF93C7
:1006D0007C018B010E943203C82F811117C08091C9
:1006E000E80085FD0BC08091E8008E778093E800DC
:1006F0000E943203882399F3C82F08C0F701819123
:100700007F018093F1000150110949F78C2FCF919F
:100710001F910F91FF90EF900895CF93FC0180916E
:100720009A06843001F5C091E900CF702091EC0069
:10073000922F917020FD90E8C92B82E08093E90010
:100740008091E80080FF0CC050E040E060E270E083
:10075000CF010E9463038091E8008E778093E800C8
:10076000CF70C093E900CF9108958091920687FFE2
:1007700013C08091E80082FF06C08091E8008B776B
:100780008093E80004C080919A068111F2CF089509
:1007900080919A068823D9F38091E80080FFF8CFF2
:1007A0008091E8008E77ECCF982F9093E900242F6A
:1007B000762F50E0891731F07091EC002091ED0018
:1007C0005091F00021FD07C09F5F973071F7809333
:1007D000E90081E008953091EB003E7F3093EB001B
:1007E0003091ED003D7F3093ED003091EB003160B2
:1007F0003093EB007093EC002093ED005093F000E9
:100800002091EE0027FDE0CF80E00895CF92DF92A7
:10081000EF92FF920F931F93CF93DF93C8EDD0E039
:1008200088818F7E8883E7EDF0E08081816080831E
:1008300084E082BF81E08093650688818E7F888313
:1008400002EE10E0F80110821092DA0081EEC82E5C
:10085000D12CF601108288818F7788838881806807
:10086000888388818F7D888319BC10929A061092A4
:1008700091061092900610928F0690EEE92EF12CC0
:10088000F70180818B7F808388818160888342E04B
:1008900060E080E00E94D403F60180818E7F808337
:1008A000F801808181608083808188608083F70186
:1008B00080818E7F8083888180618883DF91CF9162
:1008C0001F910F91FF90EF90DF90CF900895FC0162
:1008D000809198069091990686179707A0F0611568
:1008E000710529F49091E8009E779093E80090E0DC
:1008F0006115710551F4911108C08091E80082FFE3
:1009000034C080E00895BC01F2CF80919A0688231C
:10091000C1F18530C1F18091E80083FD30C0809144
:10092000E80082FDEACF8091E80080FFE1CF80916E
:10093000F3002091F200382F6115710519F028306D
:10094000310558F091E02830310509F090E0209110
:10095000E8002E772093E800CBCF81918093F100BF
:10096000615071092F5F3F4FE7CF80919A0688232E
:1009700041F0853041F08091E80083FFBECF81E0F7
:10098000089582E0089583E0089580919A06843066
:1009900011F482E0089581E00895089580916E0633
:1009A000089590914B06803F41F480914C0687FD5D
:1009B00010924C06992371F00895813F29F480919B
:1009C0004C061816ACF3F6CF823F81F497FFF2CFB6
:1009D00010924B0680914C0690914D06892B909178
:1009E0004E06892B49F7109246060895833F19F465
:1009F000191674F3DFCF893F39F480914D0618162C
:100A0000CCF610924D06D6CF8A3F29F480914D0640
:100A100087FFD0CFF6CF8B3F39F480914E0687FF0A
:100A2000C9CF10924E06C6CF8C3F29F480914E0656
:100A30001816BCF3BFCF843F31F480914A068E7FF5
:100A400080934A06B7CF853F21F480914A068D7F77
:100A5000F7CF863F21F480914A068B7FF1CF873F05
:100A600021F480914A06877FEBCF883F21F4809163
:100A70004A068F7EE5CF8D3F31F4809128068E7F28
:100A80008093280697CF8E3F21F4809128068D7F92
:100A9000F7CF8F3F09F08ECF809128068B7FF0CF64
:100AA0008091280680FD16C081FD16C082FD16C00B
:100AB000809146068823A1F0883280F428E0829F46
:100AC000C001112468E270E00E940629862F672B7E
:100AD00039F0089582E0089584E0089588E008954B
:100AE00081E008958091280680FD14C081FD14C026
:100AF00082FD16C080914606882381F0843180F4FF
:100B000022E3829FC001112464E170E00E94062963
:100B1000862F08958CE0089589E1089585E0089571
:100B200082E30895803F31F40E947205819580939D
:100B30004C060895813F19F40E947205F8CF823F58
:100B400031F40E947205819580934B060895833F8E
:100B500019F40E947205F8CF893F29F40E945005CC
:100B600080934D0608958A3F21F40E945005819597
:100B7000F7CF8B3F31F40E945005819580934E064C
:100B800008958C3F19F40E945005F8CF843F31F44A
:100B900080914A06816080934A060895853F21F43A
:100BA00080914A068260F7CF863F21F480914A0601
:100BB0008460F1CF873F21F480914A068860EBCFB3
:100BC000883F21F480914A068061E5CF8D3F31F462
:100BD0008091280681608093280608958E3F21F435
:100BE000809128068260F7CF8F3FB9F78091280661
:100BF0008460F1CF9C014FB7F89480916106909189
:100C00006206A0916306B09164064FBF821B930BEE
:100C100008952FB7F8948091610690916206A09193
:100C20006306B09164062FBF0895E0913306F091FA
:100C30003406309749F082E0809349060480F581BC
:100C4000E02D89E496E009950E94090690934506F7
:100C50008093440608958091230681111092230603
:100C600008958091220690912106892B909120066B
:100C7000892B8093AA01909123069923A1F0892BB7
:100C80008093AA0180911F01882341F18091310650
:100C900087FF24C08EE1ECEAF1E090E0815000F59E
:100CA00091110E942B06E0913306F09134063097A3
:100CB000E1F080911F01882359F08091310687FF70
:100CC00007C08091AA018093AB0185E08093AA01BF
:100CD0000280F381E02D8AEA91E0099486E0DBCF7F
:100CE00021912223D9F29F5FD9CF089590911F01BE
:100CF0009923D1F09091310697FF16C0E82FE69521
:100D0000E695E695EE31E0F4F0E0E655FE4F282F4B
:100D1000277081E090E001C0880F2A95EAF780955E
:100D20009281892382830895ECEAF1E091918913FD
:100D300003C0DF0111971C9291E0E23BF907B1F784
:100D4000089590911F019923C1F09091310697FF6A
:100D500014C0E82FE695E695E695EE31F8F4F0E05C
:100D6000E655FE4F877021E030E001C0220F8A95E2
:100D7000EAF78281822B82830895ACEAB1E0EFEF3B
:100D800090E02D91821751F0EF3F19F4211101C02D
:100D9000E92F9F5F9630A9F7EF3F09F408950E2ED3
:100DA000000CFF0BE655FE4FE6CF990F990F890F08
:100DB000982F977086958695869525E0829FF001FD
:100DC0001124E55FF94F50E040E080E0219130E0F0
:100DD000092E02C0369527950A94E2F72170332731
:100DE000042E01C0220F0A94EAF7822B4F5F5F4F57
:100DF0004530510559F70895990F990F890F982F8C
:100E0000977041E001C0440F9A95EAF78695869560
:100E1000869595E0899FF0011124E55FF94F30E058
:100E200020E070E05191DF011197CB01022E02C04A
:100E3000969587950A94E2F781708195852784239A
:100E400085278C932F5F3F4F2530310559F7089543
:100E500080910A069091D905981301C008958F5F7B
:100E60008770FACF882341F08095909122068923DC
:100E7000809322060C9431060895882339F09091CE
:100E80002206982B909322060C9431060895209107
:100E9000CC023091CD022817390771F09093CD0222
:100EA0008093CC02E0913306F0913406309721F024
:100EB0000084F185E02D099408952091CA023091B3
:100EC000CB022817390771F09093CB028093CA02A6
:100ED000E0913306F0913406309721F00680F781D7
:100EE000E02D0994089510922106109220060E9488
:100EF000310686E0E9E4F6E0DF011D928A95E9F724
:100F000010924606109228060E94150690E080E096
:100F10000E945D0790E080E00C94470760939B0679
:100F200070939C0680939D0690939E060C94730785
:100F30000F931F9360919B0670919C0680919D0674
:100F400090919E068B019C01067011272227332762
:100F5000063011052105310529F468601F910F91B4
:100F60000C948E07677FFACF0F931F9341E050E0F8
:100F700060E070E004C0440F551F661F771F8A951C
:100F8000D2F7CB01BA01609570958095909500914C
:100F90009B0610919C0620919D0630919E06602331
:100FA0007123822393231F910F910C948E079091AC
:100FB0001F068095892380931F06282F277071F4C0
:100FC000282F082E000C330B9217130639F0859545
:100FD000859585950E94B40710921F0608950F937A
:100FE0001F9341E050E060E070E004C0440F551FE3
:100FF000661F771F8A95D2F780919B0690919C0679
:10100000A0919D06B0919E068A019B01082B192B89
:101010002A2B3B2BC901B8011F910F910C948E070D
:1010200060E070E0CB010C948E076093240670930F
:10103000250680932606909327060C947307E0916B
:101040003306F0913406309721F00190F081E02DC5
:10105000099480E00895882309F459C0823871F416
:101060000E941F0881FF53C089E30E94A1060E94CD
:10107000310689E30E9476060C943106833859F4D0
:101080000E941F0880FF43C083E50E94A1060E94C2
:10109000310683E5EFCF843859F40E941F0882FFA0
:1010A00036C087E40E94A1060E94310687E4E2CFA1
:1010B0009CEF980F913AF0F290E2980F983088F4F4
:1010C000877021E030E0A90102C0440F551F8A95C6
:1010D000E2F7CA0180959091220689238093220627
:1010E000CBCF9BE5980F933020F490E080E00C94F8
:1010F0005D0798E5980F973120F490E080E00C941C
:101100004707803F20F00E94D1040C9415060895F3
:10111000FA01811101C0FB01099480916606982FA4
:101120009E7F61F48170826080936606809169067B
:10113000853B18F084EB8093690608958635B0F3FB
:1011400081708465F1CFAF92BF92DF92EF92FF92F0
:101150000F931F93CF93DF93182F062FE901453B81
:1011600008F044EBE42FF0E0E653FE4F011110C00D
:10117000E4915E2F4E2F4983E8835A83DF91CF910C
:101180001F910F91FF90EF90DF90BF90AF90089567
:10119000202F30E04491D42EE42EF12C56E0159F00
:1011A000C0011124EFEFF0E0BF010E94F228812F6F
:1011B00090E0880F991F55E5569FD001579FB00DBD
:1011C00011248A1B9B0B982F990F890F5F01A21A7C
:1011D000B30AAE9CD001AF9CB00DBE9CB00D1124E3
:1011E0005B2F089F80011124012F11275F01A01A96
:1011F000B10AAE9C8001AF9C100DBE9C100D112455
:101200005F01A81AB108A29EC001A39E900DB29ED4
:10121000900D1124892F9927E81BF90BEE9DC00131
:10122000EF9D900DFE9D900D1124E92F6230710508
:10123000A1F050F46115710509F49DCF613071057D
:1012400081F0EB2F512F97CF6430710569F080F05A
:101250006630710509F48FCFF4CFE42F4B2F592F4F
:101260008ACFE42F412F87CFEB2F542F492F83CFE5
:101270004B2F5D2DE12F7FCF9091310692FF06C05D
:10128000282F28712830F9F4877F846093FF06C0E7
:10129000282F28712831F1F4877E8461209132064D
:1012A00020FF06C0382F38713830D9F4877F81602D
:1012B00021FF06C0282F28712831D1F4877E816153
:1012C00094FD877E0895282F24712430F9F68B7FB2
:1012D0008860DCCF282F2471243101F78B7E886150
:1012E000DDCF382F3171313019F78E7F8860E0CF34
:1012F000282F2171213121F78E7E8861E1CF80FF77
:101300000BC0509A589881FF09C0559A5D9882FF8A
:1013100007C0549A5C9808955098F4CF5598F6CF2A
:101320005498F8CFCF93DF9300D00F92CDB7DEB7AC
:1013300090919A06943011F589837B836A83909308
:10134000E9008FEF9091E800815095FD06C095ED82
:101350009A95F1F700008111F5CF8091E80085FFA3
:101360000DC050E040E063E070E0CE0101960E94C5
:1013700063038091E8008E778093E8000F900F90D0
:101380000F90DF91CF910895CF93DF93EC010E94EE
:10139000C504823011F0843031F4BE0184E0DF9165
:1013A000CF910C949209DF91CF910895BC0183E015
:1013B0000C949209CF93DF93EC010E94C504823014
:1013C00011F08430F9F484E08093E9008FEF90917C
:1013D000E800815095FD06C095ED9A95F1F7000063
:1013E0008111F5CF8091E80085FF0CC050E040E00E
:1013F00066E070E0CE010E9463038091E8008E7782
:101400008093E800DF91CF910895CF93DF93EC01B3
:101410000E94C504823011F08430B9F580911F011B
:101420008823B1F18091310687FF32C060E284E009
:101430008093E9008FEF9091E800815095FD06C000
:1014400095ED9A95F1F700008111F5CF8091E800B4
:1014500085FF1BC080911F0170E050E040E08111CA
:1014600004C050E040E068E070E0CE010E946303F9
:101470008091E8008E778093E80080E2FE01AFE67D
:10148000B6E001900D928A95E1F7DF91CF91089532
:1014900068E081E0CDCF81E08093E00080E280933E
:1014A000D8001092C9008FE19EE40197F1F700C0C7
:1014B000000087E090EBDC0180939F069093A006EC
:1014C000A093A106B093A20688E19CE00FB6F89421
:1014D000A895809360000FBE90936000FFCFCF93DC
:1014E000C82F882309F4AEC08238C1F40E941F08B7
:1014F00081FDA8C089E30E94A1060E9431062FEF5A
:1015000081EE94E0215080409040E1F700C000005F
:1015100089E30E947606CF910C9431068338A1F4BA
:101520000E941F0880FD8EC083E50E94A1060E94D4
:1015300031062FEF81EE94E0215080409040E1F79A
:1015400000C0000083E5E5CF8438A1F40E941F08A5
:1015500082FD78C087E40E94A1060E9431062FEF29
:1015600081EE94E0215080409040E1F700C00000FF
:1015700087E4CFCF8CEF8C0F813A88F580911F01E3
:10158000882301F18091310687FF1CC0EC2FE6957E
:10159000E695E695F0E0E655FE4F828190E04C2F0F
:1015A000477021E030E002C0220F331F4A95E2F776
:1015B00082239323892B79F08C2F0E9476060E9438
:1015C000310609C0ECEAF1E08191C817A9F321E0E6
:1015D000E23BF207C9F78C2F0E94A1069CCF80E264
:1015E0008C0F883068F4C77021E030E001C0220F12
:1015F000CA95EAF780912206822B809322068BCF30
:10160000EBE5EC0FE33040F4F0E0E55BFE4F80816A
:1016100090E0CF910C945D07E8E5EC0FE73150F4D2
:10162000F0E0EE0FFF1FE25BFE4F80819181CF91D2
:101630000C944707C03F30F08C2F0E949205CF9149
:101640000C941506CF910895CF93C82F0E946F0A6E
:10165000C93349F42FEF87EE93E02150804090404A
:10166000E1F700C000008C2FCF910C942B080F9352
:101670001F93CF93DF93C62FD42F022FFC018281BB
:101680008823A1F06093D1050E9409069093C902B6
:101690008093C802C77081E001C0880FCA95EAF73D
:1016A000DF91CF911F910F910C943D071091D105BF
:1016B000161335C08091C8029091C9020E94FA05A4
:1016C000883C910560F5C0E2CD0F1D17B9F080E2AE
:1016D000810F883040F4177081E001C0880F1A959F
:1016E000EAF70E943207C83048F481E09D2F9770D6
:1016F00001C0880F9A95EAF70E943D07802F0E944B
:10170000240BC83098F4D77081E001C0880FDA95B7
:10171000EAF7DF91CF911F910F910C943207C770B8
:1017200081E001C0880FCA95EAF7F3CFDF91CF912E
:101730001F910F9108958091660680FD0AC0E0ED2B
:10174000F1E0118210821282339652E0ED32F507F9
:10175000C1F7279A35B13F7725B120684FB7F89484
:1017600080ED91E0FC015191CF0168E025B90000C6
:1017700000C057FF35B9550F000000C000C000C0C1
:1017800035B900C06A9591F7F2E08D329F0751F7A5
:101790004FBF8FE594E00197F1F700C00000089576
:1017A000EF92FF921F93CF93DF93EC0180EDE82E31
:1017B00081E0F82E10E08C819701409169066091DC
:1017C0006806810F0E94A308185F83E0E80EF11CF1
:1017D000183F89F70E949B0B9A818C8190FF08C06B
:1017E0008F5F8C83DF91CF911F91FF90EF900895D1
:1017F0008150F7CFBF92CF92DF92EF92FF920F937B
:101800001F93CF93DF93FC018281DD24DA9480FD66
:1018100002C0DD24D39400ED11E0D0E0C0E02FE160
:10182000B22EF80111821082128294E0E92EF12C7E
:10183000C12C8091CD018C0D80320CF43DC06B2DFC
:101840000E94E428892F082E000C990B8C179D0705
:1018500091F4809169068E9DA0018F9D500D1124F9
:1018600055954795559547959801609168068091E3
:1018700067060E94A308CD0CF1E0EF1AF108C9F643
:1018800021960D5F1F4FCF31D10559F60E949B0B5A
:101890008091CD0191E0D91215C0811111C08EE166
:1018A0008093CD01DF91CF911F910F91FF90EF9029
:1018B000DF90CF90BF90089587FFC5CF815EC3CFE3
:1018C0008150EECF90E00196BE010E940629E8CF3C
:1018D0000F931F93CF93DF93C0EDD1E0FE011182F0
:1018E00010821282339682E0ED32F807C1F710E0E1
:1018F00000E08091CE01082E000C990B0817190703
:101900008CF180911001082E000C990B8017910723
:101910004CF19E01409169066091680680916706CE
:101920000E94A3080F5F1F4F23960F31110509F77F
:101930000E949B0B80910F019091CE01980F909384
:10194000CE0120911001280F20931001121614F4DB
:101950009E311CF0819580930F01DF91CF911F91F3
:101960000F910895198218821A82DCCFEF92FF92AC
:101970000F931F93CF93DF93EC018C819D81019690
:10198000817099279D838C8380EDE82E81E0F82E6D
:1019900010E005E5812F86952C813D81820F932FE4
:1019A000911D817097014091690660916806809F42
:1019B000802D11240E94A3081F5F83E0E80EF11C14
:1019C0001F3141F7DF91CF911F910F91FF90EF9061
:1019D0000C949B0BEF92FF920F931F93CF93DF9387
:1019E0008C01C0EDD1E0F12CE12CF80194816091E3
:1019F000680680916706FFE0EF16F104FCF4992376
:101A0000F9F09E01409169060E94A3082FEFE21AA7
:101A1000F20A23968FE1E816F10439F70E949B0B36
:101A2000F801848190E00196817099278483DF9189
:101A3000CF911F910F91FF90EF900895992309F393
:101A40009E0140E0E1CF9091660690FF0CC0E0ED72
:101A5000F1E0818360834283339692E0ED32F907AF
:101A6000C1F70C949B0B08950F931F93CF93DF93B3
:101A700000D00F92CDB7DEB78C018091CF018111DC
:101A80000AC09E012F5F3F4F44EB6FEF0E94A308F7
:101A90008A818093CF01F8016481613069F080917F
:101AA000CF0140E0662361F040E0623011F44091E4
:101AB000CF0180E060E004C06091CF0140E080E0B1
:101AC0000E94230DF801848190E0019663E070E0AC
:101AD0000E94062984830F900F900F90DF91CF9181
:101AE0001F910F910895CF93DF9300D00F92CDB740
:101AF000DEB79091660690FF0AC09E012F5F3F4FB0
:101B00000E94A3084B8169818A810E94230D0F9056
:101B10000F900F90DF91CF910895CF93DF93EC0159
:101B2000EC81F0E0E153FD4F4491E6E6F6E062819E
:101B300081810E94730D8C818F5F8C83DF91CF91A7
:101B40000895CF93DF93EC01E6E6F6E043816281EE
:101B50008C810E94730D8C818F5F8C83DF91CF917C
:101B600008958F929F92AF92BF92CF92DF92EF92A1
:101B7000FF920F931F93CF93DF936CE771E099E28D
:101B8000892E96E0992E23E8A22E21E0B22EC0E005
:101B9000EE24E394F12CDB018D91BD01E82FE29559
:101BA000EF70F0E091A18F70870101C0000F8A955E
:101BB000EAF7892F802B81A382A1D02FD0958D2386
:101BC00082A3B0EABA95F1F783E8C82E81E0D82E57
:101BD00050E040E020E0D6013D916D01832F8295D9
:101BE0008F7090E0DC0190968C9190E03F7002C085
:101BF000959587953A95E2F780FD52C08E2D042E7B
:101C000001C0880F0A94EAF7282B4F5F5F4F4430DA
:101C1000510509F781A18D2381A382A1082B02A37D
:101C2000F40180812817F1F1208381E0C82BFFEFB8
:101C30008F1A9F0AA616B70609F0ADCFCC23A1F1E3
:101C400081E08093CC010E9409069093CB018093A0
:101C5000CA018091CA019091CB010E94FA050697B2
:101C600038F18091290680935A0680912A06809344
:101C70005B0680912B0680935C0680912C068093F6
:101C80005D0680912D0680935E0680912E068093DE
:101C90005F0680912F06809360061092CC0108C0E9
:101CA00080E0B2CF80E0C2CF8091CC018111D1CF52
:101CB0008C2FDF91CF911F910F91FF90EF90DF90CC
:101CC000CF90BF90AF909F908F900895CF9384E076
:101CD00090E00E949029C82F81E290E00E94902914
:101CE000982F8C2FCF9108950F931F93CF93DF934D
:101CF00028E0629FE001112450E0440F551FC40FFB
:101D0000D51F38E3839FC00DD11D1124CE018696C7
:101D10000E949029082F10E0102F0027CE018796EF
:101D20000E9490299801282BC901DF91CF911F9122
:101D30000F910895462F873038F4773028F46430B7
:101D400018F4672F0C94740E90E080E00895CF9300
:101D5000DF930E949A0EEC0182389105A9F1D8F523
:101D60008133910509F496C048F58932910509F44B
:101D70008AC08A9709F495C0C11521E5D20708F0F9
:101D8000BCC0C11530E5D30708F014C1C83ED10569
:101D900008F09CC0C03ED10560F5C83AD10508F0F6
:101DA00087C0C53AD10508F0FDC0C130D10509F1A1
:101DB0002097F9F0C430D105E0F440C08533910597
:101DC00009F45AC0C997C1F680913106837089F031
:101DD000C0EED0E00EC0833E910599F170F4803ED4
:101DE000910501F1823E910539F68091310682FD1F
:101DF00021C0CE01DF91CF910895863E910561F11A
:101E0000873E910571F1843E910509F0B5CF80912F
:101E1000320681FFEECF80913106C7EED0E084FD1F
:101E20000DC0E7CF8091310680FD12C1909132063E
:101E300090FFDFCFC3EED0E084FFDBCFD0E0C0E087
:101E4000D8CF8091310682FD06C19091320690FD77
:101E5000BFCF84FFCECFF2CF8091310683FDDDCF9F
:101E6000C8CF8091310683FDF9C09091320691FF71
:101E7000F0CFC4EED0E0BDCF8091310685FFB9CF61
:101E8000C9E2D0E0B6CF8091310685FFB2CFC5E37D
:101E9000D0E0AFCF8091310686FFABCFCAE2D0E071
:101EA000A8CF8091310686FFA4CFC1E3D0E0A1CFB7
:101EB000CF3BD10518F6C85AD0E0CC0FDD1FC25B6E
:101EC000DE4F0990D881C02DD46493CFC11540E274
:101ED000D40758F4C11581E0D80708F08ACFC03F75
:101EE000D10508F4ABCFD06584CFC11590E4D907F4
:101EF00008F4A4CFDF70D06A7CCFC11525E5D207E6
:101F000000F5C11534E5D30708F08AC0C11543E5D3
:101F1000D40708F071C0C11582E5D80708F467C07E
:101F2000CE018370992721E030E002C0220F331FD9
:101F30008A95E2F7C695C69580E2C89FE001112414
:101F400052C0C11599E5D907A8F4C11528E5D207F3
:101F500008F06BC0C11536E5D30708F06FCF8C2FA2
:101F60000E943C09C82FD0E0DC2FCC27CC27DF71A2
:101F7000D0623FCFC1154AE5D40708F45BC0CE015B
:101F800090568115904208F059CF8D2F8F710E9485
:101F90003C0990E0982F882788279F719C012C2B63
:101FA000E901E6CFC55AD0E0C55BDE4FC881D0E07D
:101FB000D0641FCFCE01E4E096958795EA95E1F7CE
:101FC00083702C2F26952695237040E2249F900144
:101FD0001124382B8C2F8370C1E0D0E002C0CC0FCD
:101FE000DD1F8A95E2F7C22BD32BDC6802CFDC2FF2
:101FF000CC27C16FD06AFDCECE018370992721E036
:1020000030E002C0220F331F8A95E2F7C695C695CD
:1020100090E2C99FE0011124C22BD32BDA68E9CEEC
:10202000DC2FCC27C46FD06AE4CEDC2FCC27C06F66
:10203000D06ADFCE8C2F8F700E943C0934E0D69599
:10204000C7953A95E1F7CF709C2FEC01D069D1CEBE
:10205000C9E3D0E0CECEC2EED0E0CBCEC6EED0E02B
:10206000C8CEBF92CF92DF92EF92FF920F931F9351
:10207000CF93DF938C01C0909B06D0909C06E0909C
:102080009D06F0909E068091240690912506A091D1
:102090002606B0912706C82AD92AEA2AFB2ACFE1C8
:1020A000D0E0BC2ED701C6010C2E04C0B695A79572
:1020B000979587950A94D2F780FD0EC0219788F7EF
:1020C000B12C8B2DDF91CF911F910F91FF90EF904D
:1020D000DF90CF90BF900895B8018C2F0E94A70E7B
:1020E000019761F3EECFCF93DF93EC010E943110A3
:1020F000BE01DF91CF910C94A70E0E947310292F7F
:102100002F7092959F7092509E3078F4E92FF0E0F6
:10211000E35CF54D0C941A29803F19F020F4883EB9
:1021200020F481E00895843FE1F380E00895883E43
:10213000C0F3813FD1F7F5CF822F8695869586959E
:1021400008956F927F928F929F92AF92BF92CF929B
:10215000DF92EF92FF920F931F93CF93DF938FEC59
:10216000C82E83E0D82E06E610E0E801E897360195
:102170001CC0F50185909490692DC7010E94A42987
:10218000682DC70101960E94A42982E0A80EB11C07
:1021900082E0E80EF11CCE15DF0559F788E0680EE5
:1021A000711C28960C171D0731F07E0188E0E81A93
:1021B000F1085301DECF085C1F4F88E3C80ED11C25
:1021C0000E3E81E0180789F6DF91CF911F910F91A4
:1021D000FF90EF90DF90CF90BF90AF909F908F9047
:1021E0007F906F900895CF93DF93CEEAD1E060E0C7
:1021F000CE010E94A4292196C11584E0D807B9F721
:10220000DF91CF910895CF93C82F6FEF811162E2D4
:1022100082E290E00E94A4296FEFC11162E083E2A4
:1022200090E00E94A4296FEFC11164E184E290E084
:10223000CF910C94A4298F929F92AF92BF92CF928C
:10224000DF92EF92FF920F931F93CF93DF93FC01E6
:10225000B280948081E08483CDE2D2E000ED11E091
:102260008BE4A82E88248394EE24EA94F12C2BE4AA
:10227000C22ED12C91101DC01B821A8298014A8156
:10228000698188810E94A30825960D5F1F4F82E017
:10229000C83CD80779F7DF91CF911F910F91FF903C
:1022A000EF90DF90CF90BF90AF909F908F900C9465
:1022B0009B0B2B81222309F121502B833C818A2DFA
:1022C000821B311101C0822F90916906899FC00144
:1022D0001124B6010E94F2286A83211104C033231D
:1022E00011F01C82AB8222E02B1540F28091670630
:1022F0008883809168068983C1CF0E9473298230C8
:1023000091400CF0BBCF82E08B15C0F40E94732982
:10231000B7010E940629888322E02B1590F40E94C1
:102320007329209168062695622F70E00E94062985
:10233000280F29831A82AB828C82A0CF80916706F6
:10234000EACF20916806F5CF6CEE7EEF90E080E05A
:102350000E94C22960E082E090E00E94A42960E02F
:1023600083E090E00E94A429109224061092250692
:10237000109226061092270660E084E090E00E940A
:10238000A42960E081E290E00E94A42960E085E059
:1023900090E00E94A42960E086E090E00E94A429D9
:1023A0006FEF87E090E00E94A42940E050E0BA017E
:1023B00088E090E00E94B62960E08DE090E00E9405
:1023C000A42940E050E0BA0188E190E00E94B629DB
:1023D00060E087E190E00E94A42940E050E0BA016B
:1023E0008CE190E00E94B62960E080E290E00E94DB
:1023F000A42940E050E0BA018FE090E00E94B629A5
:1024000040E050E0BA0183E190E00C94B629CF920D
:10241000DF92EF92FF926B017C010E948D08B70161
:10242000A60188E090E0FF90EF90DF90CF900C94B1
:10243000B62980916A06833018F48F5F80936A060C
:1024400060916606709167068091680690916906B2
:102450000C94071280916A06882319F081508093AA
:102460006A06609166067091670680916806909191
:1024700069060C9407125F926F927F928F929F92DF
:10248000AF92BF92CF92DF92EF92FF920F931F9382
:10249000CF93DF9300D00F92CDB7DEB7182F762EF3
:1024A000042F622E9091660690FF29C0E92FE695D1
:1024B000AE2FB0E0A05EBE4F8C91809358069E7FF9
:1024C000923081F59E012F5F3F4F812F0E94A3081C
:1024D0004B8169818A810E94230D10936706709257
:1024E000680600936906662051F060916606709157
:1024F000670680916806909169060E9407120F9006
:102500000F900F90DF91CF911F910F91FF90EF905F
:10251000DF90CF90BF90AF909F908F907F906F9003
:102520005F900895823019F400916906D6CF863005
:1025300019F410916706D1CF8930D9F3893169F642
:10254000E9518E2F8170582EE695F0E0E653FD4F4D
:10255000A590B490BB2480EDE82E81E0F82ED12C1C
:10256000C12C9FE1892E912CC601B4010E94F22852
:10257000812F511013C0860F9701402F672D0E94A5
:10258000A308CA0CDB1C83E0E80EF11C8DE2E81600
:1025900082E0F80649F70E949B0B9FCF861BECCF89
:1025A000E6E6F6E0438128E0421B08F440E021E043
:1025B000628181810C943B12E6E6F6E0438128E0DB
:1025C000420F08F44FEF21E0628181810C943B12AD
:1025D000E6E6F6E0628128E0621B08F460E021E0B4
:1025E000438181810C943B12E6E6F6E0628128E0AB
:1025F000620F08F46FEF21E0438181810C943B125C
:10260000E6E6F6E0818121E04381628188500C9406
:102610003B12E6E6F6E0818121E043816281885F3A
:102620000C943B12E6E6F6E083E0808311828FEFA4
:10263000828384EB838314826081718182819381A0
:102640000C9407121092220680911F01ECEAF1E02F
:10265000882359F08091310687FF07C08EE1DF01A2
:102660001D928A95E9F70C94730786E0F8CF1F93C3
:10267000CF93DF93CDB7DEB7AA970FB6F894DEBF3E
:102680000FBECDBF82E996E02091F100DC012D93D1
:10269000CD01B6E08A399B07B9F780919306833064
:1026A00009F471C0B8F4813009F448C0823009F4EB
:1026B000B2C08091E80083FF3AC180919206909168
:1026C00093069A3008F033C1E92FF0E0E55BF54D51
:1026D0000C941A298A3009F48DC08B3009F470C02B
:1026E000893039F780919206813219F780919606E8
:1026F00090919706009711F00297D9F68091E80023
:10270000877F8093E8008091E80082FF37C0909136
:10271000F3008091F200029729F48091F1008B7F01
:10272000813021F48091F10080936E068091E80061
:102730008B778093E8000E94B503BBCF809192060F
:10274000813A09F0B6CF8091E800877F8093E80056
:102750008091960690919706892B61F460E28FE64E
:1027600096E070E00E9467048091E8008B77809388
:10277000E8009FCF60E090E080E0F3CF80919A0680
:102780008111C1CF96CF80919206813A09F091CF05
:102790008091960690919706892B09F08ACF8091B7
:1027A000E800877F8093E8008091E80080FFFCCFFD
:1027B00080911F018093F1008091E8008E77B9CF5E
:1027C00080919206813209F074CF809196069091A3
:1027D0009706892B09F06DCF8091E800877F809361
:1027E000E8000E94B5038091940680931F010E9427
:1027F00022135FCF80919206813209F05ACF8091E7
:10280000E800877F8093E8000E94B50380919506D9
:1028100080936D064ECF80919206813A09F049CFA0
:102820008091E800877F8093E8008091E80080FF36
:10283000FCCF80916D06BECF803899F0823809F0C8
:1028400076C0809196068F70873008F070C08093B4
:10285000E9008091EB0085FB882780F91092E90060
:1028600006C080918F0690919006911182609091A0
:10287000E800977F9093E8008093F1001092F100B8
:102880008091E8008E77C0C1882309F4ADC1823001
:1028900009F04DC0809194068111B1C180919606D6
:1028A0008F702FEF280F263008F041C08093E90089
:1028B0002091EB0020FFA3C1933031F48091EB0015
:1028C00080628093EB009BC19091EB0090619093AC
:1028D000EB0021E030E001C0220F8A95EAF7209357
:1028E000EA001092EA008091EB008860EACF811143
:1028F0001EC0109194061F778091E3008078812B91
:102900008093E3008091E800877F8093E8000E9435
:10291000B5038091E80080FFFCCF8091E3008068E0
:102920008093E30082E0111183E080939A06809106
:10293000E80083FF0AC08091E800877F8093E80069
:102940008091EB0080628093EB00AA960FB6F8941A
:10295000DEBF0FBECDBFDF91CF911F91089580588C
:10296000823028F720919406309195062C3DE3E0C3
:102970003E07A1F583E08A838AE289834FB7F89402
:10298000DE01139620E03EE051E2E32FF0E05093A9
:102990005700E49120FF03C0E295EF703F5FEF70B6
:1029A0008E2F90E0EA30C0F0C7968D939D932F5FF5
:1029B000243159F74FBF8091E800877F8093E8006A
:1029C0006AE270E0CE0101960E9467048091E800FF
:1029D0008B778093E800ABCFC096E7CF80919606C7
:1029E00090919706432F55274330510509F44AC06B
:1029F00078F54130510509F485C08BE590E0E4EFAE
:102A0000F4E04230510509F092CF2091E800277F91
:102A10002093E80020919806309199068217930739
:102A200008F49C0140E02115310509F070C0411106
:102A30006EC08091E80082FDC9CF80919A068823FC
:102A400029F2853019F28091E80083FFF2CFBECFE2
:102A50004132510509F447C04232510509F067CFB0
:102A60008330910508F063CFFC01EE0FFF1FE256A3
:102A7000FE4F0190F081E02D85569E4FDC018C9138
:102A800090E01DC0332721303105E9F021153105D3
:102A900079F022303105F9F02330310509F047CFC4
:102AA000E1E6F5E0E4918E2F90E0E1E6F5E007C085
:102AB000EFE8F5E0E4918E2F90E0EFE8F5E0009785
:102AC00009F435CFA2CFEBE7F5E0E4918E2F90E04B
:102AD000EBE7F5E0F4CFE7E6F5E0E4918E2F90E048
:102AE000E7E6F5E0ECCF8330910508F020CF880FC2
:102AF000991FFC01EC55FE4F0190F081E02D89E01B
:102B000090E083CF82E190E0EFE4F5E07ECF80912A
:102B10009A06882309F45ACF853009F457CF80915B
:102B2000E80083FD53CF8091E80082FD82CF809141
:102B3000E80080FF78CF9091F3008091F20021159A
:102B4000310519F08830910550F041E0089709F0FF
:102B500040E08091E8008E778093E80064CF449154
:102B60004093F1003196215031090196E8CF803829
:102B700009F0DDCE8091E800877F8093E8008091A6
:102B800091068093F1007CCE8111D1CE10919406F4
:102B9000123008F0CCCE8091E800877F8093E80067
:102BA000109391060E94B503112311F084E005C033
:102BB0008091E30087FDFACF81E080939A0642E09E
:102BC00061EC81E00E94D40342E261EC84E00E9467
:102BD000D40342E261EC82E00E94D40342E260EC62
:102BE00083E00E94D403A3CE80919406813009F043
:102BF0009ECE81E0933009F080E0809390061092A1
:102C0000E9008091E800877F8093E8000E94B50387
:102C10008ECE60916606669570E04BE050E084E0F1
:102C200091E00E948329892B19F481E08093590651
:102C30000E94090690933706809336060895909176
:102C4000660690FF36C09170811129C09260909302
:102C50006606662351F06091660670916706809162
:102C60006806909169060E94071260916606669553
:102C700070E04BE050E084E091E00E948329892BD2
:102C8000A9F01092590681E08093390620E0409126
:102C9000690660916806809167060C943B128B323E
:102CA00010F09465D4CF880F982BD1CF0E940916CD
:102CB000EACF0895809166068695815009F48AE2EC
:102CC00061E00C941F168091660686958F5F8B32AB
:102CD00008F081E061E00C941F169091660690FF69
:102CE00007C09695981720F0961710F40C94631669
:102CF00061E00C941F164F925F926F927F928F92B9
:102D00009F92AF92BF92CF92DF92EF92FF920F937A
:102D10001F93CF93DF9300D000D00F92CDB7DEB7D3
:102D20007C01FC0183819481892B31F08081918128
:102D300089238F3F09F0ECC60F900F900F900F90F2
:102D40000F90DF91CF911F910F91FF90EF90DF9047
:102D5000CF90BF90AF909F908F907F906F905F903B
:102D60004F9008950E943110182F682F89819A8101
:102D70000E94FC0669817A81812F0E949A0E8C0143
:102D80008091D005F70192818111E6C091110CC0AC
:102D90000430FDE51F0709F4ADC008F056C003304C
:102DA0003DE5130709F477C0F7019281992309F4EF
:102DB000A4C6980122513F452031310508F076C65E
:102DC0008FEF93E00E94902902515EEA852E9924AC
:102DD000939481116DC0011147C11C821B8266242E
:102DE00063944AE0542E84010F5F1F4FC4010E9478
:102DF000902989831A82882309F45AC09FEF980F7B
:102E0000933008F040C18A83698232E0830E911CBE
:102E1000C8010E9490298B83882309F449C08E0140
:102E20000F5F1F4FF80120812223E9F2213009F0C2
:102E300063C191818281913009F027C10E5F1F4FDC
:102E40000E94240B0F5F1F4FEDCF06308DE5180752
:102E500009F45CC007309DE5190709F0A5CFC090C3
:102E60001101D090120180909B0690909C06A0903A
:102E70009D06B0909E060E9422130E94100808EC46
:102E800015E0C016D10609F456C0C8010E947B1691
:102E900006501109F6CF0E9422130E9410088EECF2
:102EA00092E09093CF058093CE0581E08093D0058A
:102EB00080911F06877009F43FCFF7018281882334
:102EC00009F43ACF82E00F900F900F900F900F907F
:102ED000DF91CF911F910F91FF90EF90DF90CF90F6
:102EE000BF90AF909F908F907F906F905F904F902A
:102EF0000C94D7070E9422130E94100888EC95E0DA
:102F00009093CF058093CE0582E0D0CFC09013017F
:102F1000D090140180909B0690909C06A0909D06F6
:102F2000B0909E060E9422130E9410080EEC12E040
:102F3000C016D10659F40E94221380929B069092EB
:102F40009C06A0929D06B0929E06B2CFC8010E9438
:102F50007B160A5F1F4FECCF980123503D4523306D
:102F60003105B8F521E005301D4509F420E02917A9
:102F700009F49ECF813029F08230B9F01092D0054B
:102F800097CF8091CE059091CF05F2E08E3C9F07C0
:102F900029F0FC0136972281211105C0909314017C
:102FA00080931301EBCFCF01F0CF8091CE059091AC
:102FB000CF0525E0883C920729F0FC013696228156
:102FC000211105C09093120180931101D7CFCF0139
:102FD000F0CF813021F1823009F0E6CE209113014B
:102FE00030911401A091CE05B091CF05911105C08B
:102FF00095E0A83CB90709F4D7CECD01069628176D
:10300000390709F4D1CE86E0F70101900D928A9537
:10301000E1F78091CE059091CF05069720C02091D1
:10302000110130911201A091CE05B091CF059111FF
:1030300005C082E0AE3CB80709F4B6CECD010697D4
:103040002817390709F4B0CE86E0F70101900D92F8
:103050008A95E1F78091CE059091CF0506969093E1
:10306000CF058093CE05A0CE8114F4E09F0609F42D
:103070001FCFC4010E949029811101C001502FEF80
:10308000821A920AA8CE4801CACE923029F40E5F65
:103090001F4F0E946F0AD6CE933029F40E5F1F4F48
:1030A0000E942B08CFCE943019F00F5F1F4FCACE6D
:1030B0000E5F1F4F30E020E0B8016F5F7F4FF801D7
:1030C00041818053990B8A30910558F02150310984
:1030D00008F4B8CE8FE99FE00197F1F700C0000037
:1030E000F5CF529EF001539EF00D11249C012E0F3E
:1030F0003F1F842F8B01E0CFE22FF0E0E15AFB4F1E
:103100007490822F86958695869590E0FC01E15B10
:10311000FB4FA4902770B12C022E02C0B594A79447
:103120000A94E2F7E1E0AE22BB24FC01E15CFB4F34
:10313000C490D12C02C0D594C7942A95E2F7F1E04F
:10314000CF22DD24A114B10419F081EE0E946F0A90
:10315000C114D10419F086EE0E946F0A872D0E94D7
:10316000240BCD2819F086EE0E942B08AB2809F419
:1031700069CE81EE95CF81E00E94EF0703C081E028
:103180000E94B4070E94980793CE82E0F5CF053FD6
:103190002CE5120709F461C008F45BC027E245EE94
:1031A00066EE063F8CE5180709F4A3C4992309F4D9
:1031B000C0C41092D1050230ECE51E0708F430C1FE
:1031C0000631FCE51F0738F098012A5F3C4529309D
:1031D000310508F025C10E94660E90933206809357
:1031E000310600312CE5120709F4E9C008F073C07C
:1031F00008308CE5180709F4D4C008F045C0043045
:10320000ECE51E0709F4C1C078F502302CE5120781
:1032100009F4B5C080913106826003301C4509F481
:10322000B1C0609131061091320684E090E00E94B6
:10323000A429612F81E290E00E94A4290E94221318
:1032400037CE27E245EE65EE54C426E241EE60EE4D
:1032500050C427E245EE64EE4CC426E241EE62EE35
:1032600048C428E241E0EFCF06308CE5180709F4A6
:1032700094C080913106886007301C4508F482C0F4
:103280008091310680627EC0809131068D7F0C3046
:10329000ECE51E0709F476C070F4809131068C606D
:1032A0000A302CE5120709F46DC008F47EC0809145
:1032B00031068E7F67C00E308CE5180709F47BC09D
:1032C000809131068B7F0F301C4508F45BC08091E4
:1032D00031068F7E57C00B3FECE51E0709F459C03D
:1032E00030F503312CE5120709F471C078F401318F
:1032F0008CE5180709F467C002311C4509F091CF2D
:103300000E942213809131068F773CC00531ECE595
:103310001E0709F464C008F478C080913206816009
:103320000A3F1C4509F07DCF809332067ACF0F3FCC
:103330003CE5130709F44FC088F4809132068D7F75
:103340000D3F9CE5190781F3809132068E7F0E3F79
:103350001C4550F3809132068360E6CF0130FDE5D5
:103360001F0709F45BC008F446C060E002301D4549
:1033700009F057CF8EE090E00E94A42952CF8091AF
:1033800031068160809331064CCF80913106846094
:10339000F9CF809132068260C7CF8091310680617B
:1033A000F1CF809131068064EDCF0E94221380918D
:1033B00031068068E7CF80913106877FE3CF809127
:1033C00031068F7DDFCF809131068F7BDBCF8091FF
:1033D0003106837FD7CF809132068C7FA5CF809135
:1033E000310682FB992790F921E0922790FB82F920
:1033F00090FB83F9C7CF80913206982F90959170FA
:103400008E7F892B90FB81F98FCF0E9422139091A0
:103410003106892F97FB87F98058B4CF61E0AACF96
:10342000809122060631ECE51E0709F08EC38A7AE8
:1034300091E009F490E09093D205811106C089E2F1
:103440000E94A1060E94310633CD85E3F9CF85E3C2
:1034500079C38091660680FF1BC08E7F80936606CD
:103460006091660670916706809168069091690682
:103470000E94071210925906FFEF20E732E0F15048
:1034800020403040E1F700C000000E949B0B10CDAF
:1034900081608093660661E086950E941F1608CDC4
:1034A0004AE556E163E676E10E94880801CD43E6ED
:1034B00056E16AE576E1F8CF40E053E169E073E177
:1034C000F3CF49E053E160E073E1EECF48EE52E123
:1034D00064EF72E1E9CF44EF52E168EE72E1E4CFCC
:1034E00040ED52E16CED72E1DFCF4CED52E160ED69
:1034F00072E1DACF4AE252E169E172E1D5CF49E106
:1035000052E16AE272E1D0CF61E081E0C6CF65E0CE
:1035100082E00E946D16CCCC68E086E0FACF6EE0C7
:1035200089E0F7CF64E18FE0F4CF67E185E1F1CF87
:1035300061E088E1B2CF62E289E1EBCF61E083E252
:10354000ACCF01158CE5180709F447C00E3D1C45AA
:1035500009F450C0F70100811181992309F44DC08D
:10356000C8010E943110D82E682FC8010E94FC06A5
:10357000B8018D2D0E94A70E8C01882EF701A58021
:10358000A2943FE0A322D280D11010922106809114
:103590001F06877099F0DD2089F0812F807F8034AD
:1035A00021F080E2800F883048F082E00E94D70747
:1035B00080911F068770CC24C3948111C12CB12E39
:1035C000B2942FE0B222FBE0FB1508F450C0EB2DC3
:1035D000F0E0EB5AF54D0C941A290E942213FFEFEC
:1035E00024E33CE0F15020403040E1F700C000000F
:1035F0000E944B0A0E94A4115BCCC8010E94D50610
:10360000D82EB6CF212F2F70A22E107F19F0A294A2
:1036100090EFA922DD20C9F0AA2069F080E2800F96
:10362000883010F081100BC080912206A82AA09249
:1036300022060E943106802F0E946F0A18C08091D6
:103640002106A82AA0922106F4CF802F0E942B08E1
:10365000AA2069F0A094005E083010F081103DC0EF
:1036600080912206A822A09222060E943106EB2D0C
:10367000E850FF0B349720F40E941F080E947F0936
:10368000CC2009F459CB80911F0680FD55CBF70162
:1036900012828595859585950E94EF07C7010E9446
:1036A0007B1680911F068595859585950F900F90C7
:1036B0000F900F900F90DF91CF911F910F91FF907E
:1036C000EF90DF90CF90BF90AF909F908F907F90C2
:1036D0006F905F904F900C94B40780912106A822C0
:1036E000A0922106C2CF312F3F70932E107F10324F
:1036F00019F0929480EF9822882071F081E088166A
:1037000061F1DD20B9F1AA2071F1F701858180FF17
:1037100092CF8F70858327C0DD2091F09091230692
:10372000892D892BA11003C00E943D07A0CFE1E0A5
:10373000AE12FACF981709F49ACF8093230697CF49
:10374000A11006C00E942B06892D0E9432078FCF40
:10375000F1E0AF1609F48BCFF5CFDD2031F025E095
:103760002A1508F484CF892DDFCF34E03A1508F408
:103770007ECFEACFAA2041F3F9E38F1290C12FEF59
:1037800037EE83E0215030408040E1F700C0000078
:1037900086C1812F86958695837061F0813009F00E
:1037A00066CFC8019370D11002C090E080E00E9403
:1037B00047075DCFC8019370D11002C090E080E050
:1037C0000E945D0754CF802FDD2029F00E949205D2
:1037D0000E9415064CCF0E94D104FACF812F83702E
:1037E00009F066C0D11043CF802F829586958770EF
:1037F000880F880F602F6F70462E512C712C612C12
:10380000082E04C0440C551C661C771C0A94D2F781
:1038100040E050E0BA0104FF0FC04FE050E060E02C
:1038200070E004C0440F551F661F771F8A95D2F7BA
:103830004095509560957095812F869586958370FB
:10384000823019F1D8F400912406109125062091B8
:10385000260630912706813069F0442955296629CA
:103860007729CB01BA0160237123822393230E941D
:103870001508FDCE402A512A622A732ACB01BA01CB
:103880006429752986299729F2CF44295529662963
:103890007729009124061091250620912606309163
:1038A0002706CB01BA016027712782279327DFCF34
:1038B0008695DD2011F0812F8170882309F4D7CE01
:1038C000802F829586958770880F880F602F6F7084
:1038D000462E512C712C612C082E04C0440C551C12
:1038E000661C771C0A94D2F740E050E0BA0104FF4E
:1038F0000FC04FE050E060E070E004C0440F551F7F
:10390000661F771F8A95D2F7409550956095709500
:10391000812F869586958370823019F1D8F40091B5
:103920009B0610919C0620919D0630919E06813049
:1039300069F04429552966297729CB01BA0160230A
:103940007123822393230E948E0791CE402A512A0D
:10395000622A732ACB01BA0164297529862997291D
:10396000F2CF442955296629772900919B061091A9
:103970009C0620919D0630919E06CB01BA016027DE
:10398000712782279327DFCF1F70DD2029F0812F39
:103990000E94EF07802FC8CE802F0E943207812F10
:1039A0000E94B40764CE802F92EF891609F450C0AC
:1039B000981578F0E0EF8E1619F1F1EF8F1609F4F3
:1039C0003FC0DD2009F466C0A11035CE812F8F7174
:1039D0003CC023EF821609F440C034EF8312F1CFCC
:1039E000DD2009F44CC01F71812F0E94EF07E8E031
:1039F0001E9FC0011124836080931F06812F25C064
:103A0000DD20C9F084E08A1508F431CE1F7161E031
:103A100070E080E090E004C0660F771F881F991F58
:103A20001A95D2F700919B0610919C0620919D0655
:103A300030919E06A4CF95E09A1508F418CEE6CFF3
:103A4000812F8F71DD2009F4ABCF0E94EF070FCEDD
:103A5000812F8F71DD20C9F3A3CFDD2069F01F71A5
:103A600061E070E080E090E004C0660F771F881F7F
:103A7000991F1A95D2F767CF0E941008F8CD81E000
:103A80000E94D707F1E0FA1508F0F1CD82E00E941C
:103A9000D707EDCDAA2039F0893309F470CE802FF5
:103AA0000E942B08E4CD812F8F717ACF0031FFE582
:103AB0001F0709F460CB01312FE5120709F465CB2C
:103AC000033F2CE5120709F4C0CB08F060CB083D9A
:103AD0008CE5180709F4B5CB093DECE51E0709F4A0
:103AE000C0CB073DFCE51F0709F060CB26E241EEA5
:103AF00061EEC7010E94370BDBC900313FE51307B8
:103B000009F43DCB01318FE51807D1F682E038CBBF
:103B100085E0DE01119601900D928A95E1F7F7019B
:103B2000228189819A8121111DC90E94D506182FF1
:103B300021C906311C4509F00DCD8091D2058111B6
:103B400086CC89E20E9476067DCC8272F801E25C26
:103B5000FC45E431F10508F0F4CCEF59F54D0C9437
:103B60001A291F93CF93DF938091D805807FA9F402
:103B70008091D505882389F080910A06D091D905D6
:103B80006091D3057091D405A091D605B091D70569
:103B9000C62FC72316E0D81304C0DF91CF911F9121
:103BA000089590E0109711F0CF3F19F401968770B7
:103BB000F2CF189F9001199F300D1124F901E652A0
:103BC000FA4F41814713F2CF40814613EFCF428134
:103BD0004111ECCF438154814A1B5B0B483C51059A
:103BE00028F78091D8058F7080618093D805F901FE
:103BF000E152FA4F80818F708061808383ED95E080
:103C00000E947B16DF91CF911F910C942807AF92F1
:103C1000BF92CF92DF92EF92FF920F931F93CF93B9
:103C2000DF93CDB7DEB761970FB6F894DEBF0FBE56
:103C3000CDBF8C0185E0F801DE011D9601900D924B
:103C40008A95E1F7F80180819181E28023EDA22E2F
:103C500025E0B22E6091D6057091D70561157105EA
:103C600009F43EC13091D3054091D405232F24237C
:103C70002F3F09F435C1C380D480F090D505F601FB
:103C8000E61BF70BFF2009F4FBC02091D805522F4B
:103C9000507FE83CF10508F0BBC0511178C0FE2C04
:103CA000491321C038131FC0E1101DC02F702061BF
:103CB0002093D805C5010E947B168091D805F80194
:103CC00085838F2D61960FB6F894DEBF0FBECDBFF2
:103CD000DF91CF911F910F91FF90EF90DF90CF90E8
:103CE000BF90AF900895CD2829F0282F29232F3F8A
:103CF00009F014C120E0F22FF170DF2E20FF3DC04B
:103D000020910A064091D90556E0241315C08D87ED
:103D10009E878D859E850E947310292F22952F7076
:103D20002230F8F0243020F59F70F9F0F8019581E9
:103D3000907FD9F4D12C1FC030E0529FF001539FE7
:103D4000F00D1124E652FA4F6181961306C060818E
:103D5000861303C06281E61210C02F5F3F4F2770A9
:103D6000D4CF9F7011F0882329F3805E883010F340
:103D7000C8010E947B16FD2CA4CFEE2009F4A1CF30
:103D80008091D80581608093D805F12C9ACF491392
:103D900012C0381310C0E1100EC0F8012583C8010D
:103DA0000E947B1686E0F801A3EDB5E001900D922C
:103DB0008A95E1F786CF8D879E878D859E850E94A7
:103DC0007D10882309F1EE20F9F08091D80580322A
:103DD00070F02091D3053091D40538872F83198650
:103DE000DB86CA868C87CE0107960E947B1686E00A
:103DF000F801A3EDB5E001900D928A95E1F70E94DC
:103E0000B11DFF24F3945DCFC8010E947B16F9CF4A
:103E100051110AC083ED95E00E947B1686E0F50102
:103E200011928A95E9F7B1CF49130FC038130DC02D
:103E3000E1100BC0F8012583C8010E947B1686E0C3
:103E4000F50111928A95E9F73CCF8D879E878D8584
:103E50009E850E947D108823B9F2EE20A9F2809100
:103E6000D805803220F22091D3053091D4053A83D1
:103E700029831B82DD82CC828E83CE010196B5CF51
:103E8000E83CF105E0F6FE2CEE2009F4BDCF491325
:103E900016C0381314C08091D80580FD83CF982FA9
:103EA000907F09F47FCFF8018583903F09F477CFA5
:103EB000982F907F905F8F70892B858370CF8D872F
:103EC0009E878D859E850E947D10811190CF809167
:103ED000D80581608093D805C8010E947B16F1CE79
:103EE000EE2009F491CF8D879E878D859E850E9457
:103EF0007D10F82E882309F487CF86E0F801A3ED22
:103F0000B5E001900D928A95E1F78091D3059091EB
:103F1000D4050E9473100E94B11DD3CE21E02E253E
:103F2000EACE1F93CF93DF93CDB7DEB767970FB677
:103F3000F894DEBF0FBECDBF4B8B5C8B6D8B7E8B41
:103F40008F8B1A8A198A85E0FE017396DE011D9611
:103F500001900D928A95E1F786E0FE013D96DE0123
:103F6000179601900D928A95E1F7CE0107960E946F
:103F7000071E882389F016E080910A069091D905E2
:103F8000891349C067960FB6F894DEBF0FBECDBF48
:103F9000DF91CF911F91089586E0FE013796DE01F3
:103FA000119601900D928A95E1F78A859B85892B60
:103FB00011F38F81988589238F3FE9F22091D905EC
:103FC00030E0C90101968770992740910A06481789
:103FD000190671F40E9422131092D90510920A0654
:103FE00086E0E3EDF5E0DF011D928A95E9F7C3CFA6
:103FF00096E0929FD001939FB00D1124A652BA4F24
:10400000FE01319601900D929A95E1F78093D905C2
:104010000E942807B0CF819FC001112486529A4F79
:104020000E94071E882309F4ADCF80910A0690E014
:1040300001968770992780930A069ECF1F920F9250
:104040000FB60F9211242F933F934F935F936F936B
:104050007F938F939F93AF93BF93CF93DF93EF9310
:10406000FF93D091E900DF708091EC00C82FC17000
:1040700080FDC0E81092E9008091F000877F809376
:10408000F00078940E9437131092E9008091F000BC
:1040900088608093F000CD2BCF70C093E900FF9132
:1040A000EF91DF91CF91BF91AF919F918F917F91D0
:1040B0006F915F914F913F912F910F900FBE0F9095
:1040C0001F9018951F920F920FB60F9211242F93E5
:1040D0003F934F935F936F937F938F939F93AF9390
:1040E000BF93EF93FF938091E10082FF09C080911D
:1040F000E20082FF05C08091E1008B7F8093E100A8
:104100008091DA0080FF24C08091D80080FF20C019
:104110008091DA008E7F8093DA008091D90080FF51
:10412000B2C080E189BD82E189BD09B400FEFDCF46
:1041300081E080939A0680916506811109C00E94F2
:1041400013030E9406048091E20084608093E200E1
:104150008091E10080FF17C08091E20080FF13C0D2
:104160008091E2008E7F8093E2008091E200806186
:104170008093E2008091D80080628093D80019BCBF
:1041800085E080939A068091E10084FF40C0809191
:10419000E20084FF3CC080E189BD82E189BD89B530
:1041A000982F917080FFFBCF8091D8008F7D8093F6
:1041B000D8008091E1008F7E8093E1008091E20041
:1041C0008F7E8093E2008091E20081608093E20024
:1041D00080919106882309F45CC084E080939A065C
:1041E0000E9422130E941F080E947F0910926C06F1
:1041F00080916B06882349F08091660681608093E8
:10420000660660E086950E941F160E94091680913E
:10421000E10083FF27C08091E20083FF23C08091EB
:10422000E100877F8093E10082E080939A061092FC
:1042300091068091E1008E7F8093E1008091E20001
:104240008E7F8093E2008091E20080618093E200A3
:1042500042E060E080E00E94D4038091F00088603A
:104260008093F000FF91EF91BF91AF919F918F915B
:104270007F916F915F914F913F912F910F900FBE62
:104280000F901F90189519BC10929A06109265060F
:104290005FCF8091E30087FD93E090939A06A0CFD3
:1042A000CDB7DEB7C255D1090FB6F894DEBF0FBE49
:1042B000CDBF84B7877F84BF0FB6F894A89580914F
:1042C0006000886180936000109260000FBE80E8FB
:1042D00090E00FB6F89480936100909361000FBE58
:1042E00085B7806885BF85B7806885BF0E94130346
:1042F0000E9406048091E20084608093E20078943A
:1043000080919A068823A1F01091E9001F70909186
:10431000EC00892F817090FD80E8182B1092E90045
:104320008091E80083FD0E9437131F701093E9000D
:1043300082E084BD93E095BD9AEF97BD80936E00B7
:10434000ACE7B1E043E851E061E070E08D91E82F27
:10435000E295EF70F0E011A18F709B0101C0220F78
:104360008A95EAF7922F9095912391A382A1822BAF
:1043700082A34A175B0751F7A3E8B1E047E851E091
:1043800061E070E08D91E82FE295EF70F0E011A10F
:104390008F709B0101C0220F8A95EAF7922F9095AA
:1043A000912391A382A1822B82A34A175B0751F725
:1043B000E9E2F6E080E396E0AAE5B6E011921D920C
:1043C0008E179F07D9F70E94B10D8FE39CE90197E3
:1043D000F1F700C000000E94B10D80915A0680FFE5
:1043E0000BC080E00E9403116FEF7FEF90E080E050
:1043F0000E94C2290E944B0A90E080E00E949E2900
:104400008C3E9E4F11F00E94A41182E290E00E9427
:104410009029823209F061C683E290E00E949029DF
:10442000823009F05AC684E290E00E9490298431DB
:1044300009F053C690E080E00E949E298C3E9E4F7A
:1044400011F00E94A41182E090E00E9490298093D4
:1044500050060E94660E909332068093310683E0E8
:1044600090E00E949029682F70E090E080E00E9428
:10447000150880913006811136C090E080E00E94DE
:104480009E298C3E9E4F21F00E94A4110E9412137F
:1044900088E090E00E949829609366067093670612
:1044A00080936806909369066E7F71F40E941213E0
:1044B00088E090E00E9498296093660670936706F2
:1044C00080936806909369060E948D0810925906A1
:1044D0008091660680FF04C060E086950E941F16EA
:1044E00081E0809330066BE971E0E0E48E2EE6E037
:1044F0009E2E27E931E0E9E9F1E041E050E0119139
:10450000812F82958F7090E0DC019196FC909197BD
:104510001F70E12E6A0101C0CC0C1A95EAF70C2D30
:1045200000950F2191960C93919792961C919297DA
:104530001C2992961C93D901FD909D010F2D029587
:104540000F7010E0D8019196BC90BF2DBF70FB2E6C
:104550006A0101C0CC0CBA95EAF7DC2CD094DB20C0
:10456000D8019196DC9291979296DC909297CD2803
:104570009296CC92DC0190968C9190E002C0959539
:104580008795EA94E2F78170D80190960C9110E03B
:1045900002C015950795FA94E2F790E000FD92E0CD
:1045A000892BD4018D934D016E177F0709F0A7CF9A
:1045B000609131066068609331061091320684E0A4
:1045C00090E00E94A429612F81E290E00E94A4293A
:1045D00085E191E0909334068093330680919A06AA
:1045E000853009F456C20E94B10DE1E5F6E0AAE576
:1045F000B6E010E000E0302F8D919191981709F40A
:10460000A8C2292F282790E0FF24F394422F4F219E
:1046100009F49AC22A969FAF2A972B963FAF2B9701
:104620008F2191E009F490E02C969FAF2C970E9487
:1046300009068160782F2E969FAF8EAF2E972A960F
:104640004FAD2A972B965FAD2B972C966FAD2C977D
:104650002E968FAD2E970E94911FF801EF5AF94FB9
:104660008081F826F08280915906882309F441C0A0
:1046700080915806E0916606E695E81BE0933806BF
:10468000823009F08DC2F0E0E051FB4FE4910E2F33
:1046900010E06DE8E62E6DE0F62E80913906882355
:1046A00089F0109239060E940906980120953095EC
:1046B000820F931F909337068093360610923B0625
:1046C00010923A0680913606909137060E94FA05BC
:1046D0008017910770F0E0913606F09137060E0FC3
:1046E0001F1F109337060093360686E396E0F70106
:1046F00009953EE3E32E36E0F32E0CE316E047E99E
:10470000A42E41E0B42E59E9852E51E0952E60E4A7
:10471000C62E66E0D62E412C72E0372E55245394D7
:10472000E4E06E2E712CD601ED916D01EE0FEE0FCF
:10473000D4012D914D01A22FA295AF70B0E09096BB
:104740008C9190E02F7002C0959587952A95E2F79D
:1047500081709927D5014D915D01A42FA295AF706D
:10476000B0E090962C9130E04F7002C035952795BF
:104770004A95E2F7A9014170552720FF02C042E0A7
:1047800050E0842BE82BD6011197EC93EF70F0E00A
:10479000E957FE4F8081F7019081890F8083843033
:1047A00024F1D8018C918F5F8C93411068C23DAA8F
:1047B0001EAA5FAA0E9409068160782F99AF88AF70
:1047C0004DA95EA96FA989AD0E94911F3AAE1BAE9B
:1047D0001CAE0E9409068160782F9EAF8DAF4AAD56
:1047E0005BAD6CAD8EAD0E94911FF70180818D3F56
:1047F00024F5D8018C9181508C93411079C219A273
:104800001AA25BA20E9409068160782F9DA38CA347
:1048100049A15AA16BA18DA10E94911F1EA21FA2A6
:1048200018A60E9409068160782F9AA789A74EA131
:104830005FA168A58AA50E94911FF7018081082EBB
:10484000000C990BB3010E940629D7018D937D01BD
:104850000F5F1F4FB1E04B120FC286E0E9E4F6E0B4
:10486000DE01119601900D928A95E1F780914B0639
:1048700090914C06892B09F468C08091470690916D
:1048800048060E94FA059C0190914606992309F476
:104890003FC42333310508F458C09F3F19F09F5F90
:1048A0009093460610924D0610924E0680914B064C
:1048B000181624F40E94720580934B0680914B06D3
:1048C00087FF05C00E947205819580934B068091F9
:1048D0004C06181624F40E94720580934C068091B1
:1048E0004C0687FF05C00E947205819580934C0697
:1048F00030914B063323B1F020914C06222391F0E6
:1049000045EB3403C0011124992309F40EC290939E
:104910004B0645EB240390011124332309F409C20B
:1049200030934C060E9415068091440690914506EE
:10493000909348068093470686E0FE013196A9E4ED
:10494000B6E001900D928A95E1F780914D06909125
:104950004E06892B09F468C0809142069091430667
:104960000E94FA059C0190914606992309F4CBC355
:104970002536310508F458C09F3F19F09F5F90938A
:10498000460610924B0610924C0680914D06181662
:1049900024F40E94500580934D0680914D0687FFB8
:1049A00005C00E945005819580934D0680914E066A
:1049B000181624F40E94500580934E0680914E06EE
:1049C00087FF05C00E945005819580934E06309167
:1049D0004D063323B1F020914E06222391F045EB92
:1049E0003403C0011124992309F4A7C190934D0603
:1049F00045EB240390011124332309F4A2C1309321
:104A00004E060E94150680914406909145069093AB
:104A100043068093420686E0FE013196A9E4B6E0A3
:104A200001900D928A95E1F70E941F0890914F0620
:104A3000891731F00E941F0880934F060E947F095A
:104A400080919A06843009F0C9CD83E08093E90013
:104A50008091E80082FFC2CD8091E80090E085FF60
:104A600006C00E943203882309F46FC191E080914F
:104A7000E8008B778093E800992309F4AFCDE981B2
:104A8000E150E33108F0C3C1F0E0EB58F54D0C9470
:104A90001A2980919A06843009F444C01092350690
:104AA00088E190E020E40FB6F894A8958093600028
:104AB0000FBE2093600080E00E947F09109259068B
:104AC00080916C06811117C081E080936C06809103
:104AD0006606982F917090936B068E7F8093660682
:104AE000BFEFE0E7F2E0B150E040F040E1F700C096
:104AF00000000E949B0B83B7817F846083BF83B7D4
:104B0000816083BF7894889583B78E7F83BF0FB60B
:104B1000F894A8958091600088618093600010925D
:104B200060000FBE80919006882309F457CD0E9443
:104B3000B10DEAE5F6E09F01295F822F9191911175
:104B4000B6C28E13FBCF4ACD9F5FFF0C943009F0A5
:104B50005DCD0F5F1F4F0730110509F04CCD8FEF72
:104B60002F968FAF2F9760968FAF609761961FAE8D
:104B700061970E9409068160782F63969FAF8EAF80
:104B800063972F964FAD2F9760965FAD60976196B4
:104B90006FAD619763968FAD63970E94911F63CD50
:104BA000863059F4F0E0E351FB4FE4910E2F10E012
:104BB00051EAE52E5DE0F52E70CD893061F4E69581
:104BC000F0E0E651FB4FE4910E2F10E040EDE42EB3
:104BD0004BE0F42E62CD8F3061F4E695F0E0E951C0
:104BE000FB4FE4910E2F10E03AEFE32E3BE0F32E63
:104BF00054CD853159F4F0E0EC51FB4FE4910E2F88
:104C000010E028E6E22E2CE0F22E47CD08EE13E06D
:104C1000B6EBEB2EBCE0FB2E883109F43ECD83329F
:104C200049F4E2EEF4E00591149194E3E92E9DE05D
:104C3000F92E33CD04EF11E0AAEEEA2EACE0FA2E05
:104C4000843209F42ACD00ED17E0FDECEF2EF4E0FC
:104C5000FF2E853209F021CD8E2F63E00E94D828E7
:104C6000E92FF0E0E152FB4FE4910E2F10E08BE1D1
:104C7000E82E81E1F82E11CD4424439454CD3FAE6B
:104C800021965FAE219722965FAE22970E94090679
:104C90008160782F24969FAF8EAF24974FAD2196D9
:104CA0005FAD219722966FAD229724968FAD249702
:104CB0000E94911F25963FAE259726965FAE2697B8
:104CC00027961FAE27970E9409068160782F2996A4
:104CD0009FAF8EAF299725964FAD259726965FAD4E
:104CE000269727966FAD279729968FAD29977BCD6D
:104CF0001BA65CA65DA60E9409068160782F9FA76F
:104D00008EA74BA55CA56DA58FA50E94911F18AA23
:104D100059AA1AAA0E9409068160782F9CAB8BAB16
:104D200048A959A96AA98CA986CD81E080934B0630
:104D3000F0CD81E080934C06F5CD81E080934D0667
:104D400057CE81E080934E065CCE00E210E0CE01AB
:104D500001967C018091E80085FD0AC08091E80001
:104D60008B778093E8000E943203882399F37ECEEC
:104D70008091F100D7018D937D010150110951F708
:104D800075CE1A8289E08B8319C08A81823009F43A
:104D9000B1C18330C1F08130D1F52FB7F894609163
:104DA00061067091620680916306909164062FBF40
:104DB0000E9420296B837C838D839E83CE01019684
:104DC0000E948D030BCC80915A068B8380915B06E9
:104DD0008C8380915C068D8380915D068E838091AB
:104DE0005E068F8380915F06888780916006898741
:104DF000E5CF8A81823059F46B817C818D819E81DF
:104E00000E94202985E290E00E94A429D7CF8FEF4D
:104E10008983D4CF4C816B818A810E94740E98273C
:104E2000892798279E838D83C9CFED80FE80FE243D
:104E3000EF24FE248A810B81B8E00B9F80011124AE
:104E4000E8E38E9F000D111D11248C8190E0880FE6
:104E5000991F080F191F6F2DC80186960E94A4295B
:104E60006E2DC8018796D0CF0E94A110A7CF8A814E
:104E70008138C1F060F4803809F0A0CF20E04B8188
:104E800060916806809167060E943B1297CF823836
:104E900059F1833809F092CF20E0409169066C8186
:104EA0008B81F2CF60E08B810E941F169B818091E5
:104EB0006606911111C08E7F809366061092590686
:104EC000FFEF20E732E0F15020403040E1F700C032
:104ED00000000E949B0B72CF81608093660660E0A9
:104EE00086950E941F166ACF8B8180936A0666CFD3
:104EF0008A81813899F030F4803809F05FCF809151
:104F0000690641CF823891F0833809F057CF8091FC
:104F100067068B83809168068C8350CF80916606EC
:104F200080FF02C086952FCF80E02DCF80916A064A
:104F30002ACF60916606709167068091680690910D
:104F400069060E9407123ACF80E18A8337CF82E058
:104F50008A8382E518CF0A811B8110270127102739
:104F6000CE0101967C01CC80DC01AC0DB11D6D0140
:104F7000C80182559E4FEC14FD0409F41FCF023581
:104F8000B2E01B0750F40E949029F70184830F5F61
:104F90001F4FBFEFEB1AFB0AEBCFD70114961C9201
:104FA000F6CF0A811B81102701271027FE013196B9
:104FB0006F01EC80E00EF12EF11CC80182559E4F6E
:104FC0000E151F0509F4FACE0235F2E01F0728F48A
:104FD000D60114966C910E94A429BFEFCB1ADB0A6C
:104FE0000F5F1F4FEACF0E94F310E8CE87E0ADCFEE
:104FF0000A811B81102701271027FE0131967F01AE
:10500000CC809F012C0D311D6901C8018696EC14DE
:10501000FD0409F4D3CE083831E0130758F40E9498
:105020009029D70114968C930F5F1F4FFFEFEF1A53
:10503000FF0AEBCFF7011482F7CF0A811B811027FB
:10504000012710279E012F5F3F4F6901EC80E00E82
:10505000F12EF11CC8018696E016F10609F4AECED9
:10506000083831E0130728F4D60114966C910E9499
:10507000A429BFEFCB1ADB0A0F5F1F4FEBCF80E0F5
:105080000E9403116FEF7FEF90E080E00E94C22941
:1050900095CECE0101960E948D03EFEFF1EE24E054
:1050A000E150F0402040E1F700C00000A3C980E1DA
:1050B00089BD82E189BD09B400FEFDCF8091D80091
:1050C0008F7D8093D8008091E00082608093E00023
:1050D0008091E00081FDFCCF81CA60E085E290E034
:1050E0000E94A4290E94A1100E94F31081E00E9456
:1050F0000311A0C985E290E00E9490291B821C82C6
:105100001D828E835BCE2D32314008F037CC8CCCA3
:105110002D32314008F0C3CB18CC78941F921FB6C3
:105120001F9211248F939F93AF93BF938091610639
:1051300090916206A0916306B09164060196A11D4C
:10514000B11D8093610690936206A0936306B093AD
:105150006406BF91AF919F918F911F901FBE1F90CA
:1051600018951F921FB61F9211248F939F93AF9390
:10517000BF9380913506811113C080916106909193
:105180006206A0916306B09164064196A11DB11D0F
:105190008093610690936206A0936306B0936406C1
:1051A000BF91AF919F918F911F901FBE1F90189537
:1051B000991B79E004C0991F961708F0961B881F69
:1051C0007A95C9F78095089587FB082E062687FDF6
:1051D000819567FD61950E94D8280EF4919507FC92
:1051E00081950895AA1BBB1B51E107C0AA1FBB1FD5
:1051F000A617B70710F0A61BB70B881F991F5A9563
:10520000A9F780959095BC01CD01089597FB072ED5
:1052100016F4009407D077FD09D00E94F22807FC0D
:1052200005D03EF4909581959F4F089570956195B6
:105230007F4F0895EE0FFF1F0590F491E02D099424
:1052400069279627692778278727782708958F92D7
:105250009F92AF92BF92CF92DF92EF92FF92CF9345
:10526000DF93EC01688179818A819B8161157105E9
:105270008105910521F464E279ED8BE597E02DE15C
:1052800033EF41E050E00E94D82949015A019B01C7
:10529000AC01A7EAB1E40E94F7296B017C01ACEEF6
:1052A000B4EFA50194010E94052ADC01CB018C0D0D
:1052B0009D1DAE1DBF1DB7FF03C00197A109B048DA
:1052C00088839983AA83BB839F77DF91CF91FF90D7
:1052D000EF90DF90CF90BF90AF909F908F90089508
:1052E0000E942729089580E091E00E9427290895CF
:1052F000B0E0A0E08093000190930101A09302012F
:10530000B09303010895FC014150504030F00190EA
:105310000616D1F73197CF01089588279927089568
:10532000F999FECF92BD81BDF89A992780B508956D
:10533000A6E1B0E044E050E00C94CA29A8E1B0E056
:1053400042E050E00C94CA29262FF999FECF92BD75
:1053500081BDF89A019700B4021639F01FBA20BD3A
:105360000FB6F894FA9AF99A0FBE08950396272F6C
:105370000E94A5290E94A429252F0E94A529242F37
:105380000C94A5290196272F0E94A5290C94A429E5
:10539000DC01CB01FC01F999FECF06C0F2BDE1BDF5
:1053A000F89A319600B40D9241505040B8F70895E4
:1053B000052E97FB1EF400940E94EF2957FD07D09D
:1053C0000E940A2A07FC03D04EF40C94EF29509552
:1053D0004095309521953F4F4F4F5F4F08959095E1
:1053E0008095709561957F4F8F4F9F4F08950E94D4
:1053F0002C2AA59F900DB49F900DA49F800D911D08
:1054000011240895B7FF0C94F7290E94F729821BF5
:10541000930B0895A1E21A2EAA1BBB1BFD010DC020
:10542000AA1FBB1FEE1FFF1FA217B307E407F50754
:1054300020F0A21BB30BE40BF50B661F771F881F30
:10544000991F1A9469F760957095809590959B01C6
:10545000AC01BD01CF010895A29FB001B39FC0016F
:10546000A39F700D811D1124911DB29F700D811D90
:105470001124911D0895F894FFCF8C108C10951075
:10548000951097109510951095108C108C109C10FD
:10549000951095109C101C144414971444149714E0
:1054A0007714AF149714B715C415021B021B731B96
:1054B000731BC91BE31B371B371BEE1BC41CD31C00
:1054C000D31C291A501A571A5C1A611A661A6B1AD9
:1054D000701A751A7A1A7F1A841A871A8C1A8F1AF8
:1054E000921A951A981A9B1A9E1AC126C526F92651
:1054F0000A27152734273727782799273F2849284F
:10550000A427A727AB27D127F327F627F8271D289D
:105510000100000001191A1B1C1D1E1F2021220161
:1055200002C805CE02CE04050ADA09D609C409016B
:105530000001020202020606060909090909090F0B
:105540000F0F0F0F0F15151518191919191919190A
:105550001919192324252525252525818283E20073
:10556000E900EA00B500B600B700CD008301CC0029
:105570008A019201940121022302240225022602BB
:1055800027022A02B300B4006F007000F0343536F1
:105590006667F1F6F7939600FF0100010000FFFF38
:1055A0000000010001FF0092F591F44022BC8A0145
:0A55B0006801AC0006051F053F0569
:00000001FF
