:100000000C94CC020C9404030C9404030C9404038D
:100010000C9404030C9404030C9404030C94040344
:100020000C9404030C9404030C945B260C94332767
:100030000C9410260C9404030C9404030C940403F5
:100040000C9404030C9404030C9404030C94040314
:100050000C9404030C9437260C9404030C940403AE
:100060000C9404030C9404030C9404030C940403F4
:100070000C9404030C9404030C9404030C940403E4
:100080000C9404030C9404030C9404030C940403D4
:100090000C9404030C9404030C9404030C940403C4
:1000A0000C9404030C9404030C940403050109024A
:1000B000A10185020901A1000509190129081500FE
:1000C0002501950875018102050109300931158165
:1000D000257F95027508810609381581257F9501D0
:1000E00075088106050C0A38021581257F95017572
:1000F000088106C0C005010980A101850319012AF4
:10010000B700150126B700950175108100C0050CD8
:100110000901A101850419012AA002150126A002E6
:10012000950175108100C005010906A1018506052C
:100130000719E029E71500250195087501810205D9
:1001400007190029EF1500250195F07501810205B9
:10015000081901290595057501910295017503910D
:1001600001C00660FF0961A1010962150026FF00B8
:100170009520750881020963150026FF00952075FA
:10018000089102C005010906A101050719E029E748
:1001900015002501950875018102950175088101F9
:1001A0000507190029FF150026FF0095067508812F
:1001B000000508190129059505750191029501753C
:1001C000039101C009025B00030100A0FA090400C9
:1001D0000001030101000921110100012240000773
:1001E0000581030800010904010002030000000961
:1001F00021110100012222000705820320000107CE
:1002000005030320000109040200010300000009A6
:10021000211101000122B60007058403200001120C
:10022000010002000000086B41AA00000301020067
:1002300001160361006B005F006D006100670069DB
:100240000063007600330000001203410074006C6C
:100250000061006E0074006900730000000403096F
:1002600004AA002900A9004C002878207827782AC1
:100270000004005400550056005F00600061005704
:10028000005C005D005E00000059005A005B0058F1
:100290000062002E00630000000100010001000167
:1002A0000001000100010001000100010001000146
:1002B0000001000100010001000100010001000037
:1002C0000001000100010001000100010001000027
:1002D000002223252628292A2C2D2F30323335368B
:1002E000383A3B3D3E4042434547494A4C4E5051C7
:1002F000535557595A5C5E6062646668696B6D6FEE
:1003000071737577797B7D7F81838587898A8C8EF0
:1003100090929496989A9C9E9FA1A3A5A7A8AAACF8
:10032000AEAFB1B3B4B6B8B9BBBCBEBFC1C2C3C532
:10033000C6C7C9CACBCCCDCED0D1D2D2D3D4D5D6D4
:10034000D7D7D8D9D9DADADBDBDBDCDCDCDCDCDD07
:10035000DDDDDDDCDCDCDCDCDBDBDBDADAD9D9D8EB
:10036000D7D7D6D5D4D3D2D2D1D0CECDCCCBCAC983
:10037000C7C6C5C3C2C1BFBEBCBBB9B8B6B4B3B1B2
:10038000AFAEACAAA8A7A5A3A19F9E9C9A9896944D
:1003900092908E8C8A89878583817F7D7B79777522
:1003A00073716F6D6B6968666462605E5C5A595701
:1003B000555351504E4C4A4947454342403E3D3BC0
:1003C0003A3836353332302F2D2C2A29282625234A
:1003D00022FFAA7F55400001010101010101010135
:1003E00002020202020202020203030303030303E6
:1003F00003040404040404040505050505060606B3
:100400000606070707070708080808090909090A6F
:100410000A0A0B0B0B0C0C0C0D0D0D0E0E0E0F0F14
:100420000F101011111112121313141415151616A2
:100430001717181819191A1A1B1B1C1D1D1E1E1F11
:100440002020212222232424252626272829292A60
:100450002B2C2D2D2E2F3031323233343536373888
:10046000393A3B3C3D3E3F40414243444546474884
:10047000494A4C4D4E4F50515354555658595A5B5A
:100480005D5E5F616264656668696B6C6D6F7072FA
:10049000737577787A7B7D7E8082838587888A8C66
:1004A0008E8F91939596989A9C9EA0A2A3A5A7A99A
:1004B000ABADAFB1B3B5B7BABCBEC0C2C4C6C9CB91
:1004C000CDCFD1D4D6D8DBDDDFE2E4E7E9EBEEF047
:1004D000F3F5F8FAFDFF00047F3F1F643214643225
:1004E00014783C1E1E140A050000000000000000E5
:1004F00000000000000000000000000000000000FC
:100500000000000000000000000000007E0F00D48A
:10051000FFFFFFC70000007800000000000000009F
:100520002A2B28000000000000000000000000004E
:1005300000000029000000002C1E34202122243459
:100540002627252E362D3738271E1F20212223242B
:1005500025263333362E37381F0405060708090AC7
:100560000B0C0D0E0F101112131415161718191A63
:100570001B1C1D2F3130232D350405060708090AE1
:100580000B0C0D0E0F101112131415161718191A43
:100590001B1C1D2F3130354C11241FBECFEFDAE06C
:1005A000DEBFCDBF04B603FE18C080910F06909148
:1005B0001006A0911106B09112068730904BA7400B
:1005C000B04B59F410920F061092100610921106BB
:1005D00010921206E0E0F8E3099511E0A0E0B1E026
:1005E000E6E6F2E502C005900D92A03AB107D9F710
:1005F00026E0A0EAB1E001C01D92AF30B207E1F7FA
:100600000E942A1F0C94B7280C940000982F9095F4
:1006100080FD08C0589A91FF07C05D9A92FF06C0FE
:100620005C9A08955898F7CF5D98F8CF5C98089534
:100630008093D10508958093D205089521E030E09C
:1006400001C0220F8A95EAF78091D205822B0E9481
:100650001B03089521E030E0A90102C0440F551F9B
:100660008A95E2F7CA0180959091D20589230E946C
:100670001B030895282F973098F5843088F534E0CF
:10068000939FC0011124820F911D282F277041E0F4
:1006900001C0440F2A95EAF723E0969587952A959D
:1006A000E1F7FC01EE0FFF1FE80FF91FE255FD4FC8
:1006B00020E030E070E05191DF011197CB01022E74
:1006C00002C0969587950A94E2F7817081958527F7
:1006D000842385278C932F5F3F4F2330310559F7B3
:1006E0000895282F973078F5843068F534E0939F8B
:1006F000C0011124820F911D682F677023E0969529
:1007000087952A95E1F7FC01EE0FFF1FE80FF91F0F
:10071000E255FD4F40E050E080E0219130E0062EB0
:1007200002C0369527950A94E2F721703327042EEC
:1007300001C0220F0A94EAF7822B4F5F5F4F4330CC
:10074000510559F7089580E008958091D80590915A
:10075000D705981301C008958F5F8770FACF9091E5
:1007600016019923C1F09091D40597FF14C0E82F8A
:10077000E695E695E695803FF8F4F0E0EE55FE4FFD
:10078000877021E030E001C0220F8A95EAF782816C
:10079000822B82830895A4EAB1E0EFEF90E02D91DF
:1007A000821751F0EF3F19F4211101C0E92F9F5F2B
:1007B0009630A9F7EF3F09F408950E2E000CFF0BB9
:1007C000EE55FE4FE6CF909116019923E1F09091FE
:1007D000D40597FF18C0E82FE695E695E695803F8B
:1007E000F0F4F0E0EE55FE4F877021E030E0A90113
:1007F00002C0440F551F8A95E2F7CA018095928185
:10080000892382830895E4EAF1E09191891303C07A
:10081000DF0111971C9251E0EA3AF507B1F708950C
:100820002091D305809582238093D305982F9770CC
:10083000911113C030E0482F082E000C550B2417DF
:10084000350759F09091D50592FF07C0859585959C
:1008500085950E942A031092D3050895982F9095AC
:100860008091CF0589238093CF0508958091D0058D
:1008700081111092D00508952091D40522FF06C061
:10088000982F98719830C1F4877F84609091D50536
:10089000392F3170927023FF21C0482F48714831A1
:1008A00091F4877E84619923B1F0982F91719131F1
:1008B00091F48E7E88610FC0982F9471943031F737
:1008C0008B7F8860E3CF482F4471443139F48B7EAD
:1008D0008861911118C024FD877E0895332369F043
:1008E000382F3871383019F4877F8160DCCF382F8A
:1008F0003171313011F48E7F8860992361F3982F24
:100900009871983191F6877E8161E5CFCF93DF931F
:10091000EC01803E910509F478C088F5813391059A
:1009200009F4C0C090F48932910509F4B0C08A324C
:10093000910509F4BEC0019709F47AC0CE0104976D
:10094000813A910508F06DC073C08933910509F4AF
:1009500050C08238910509F44CC08533910509F4E3
:1009600091C08D3C910508F010C1883A910508F0BE
:10097000A7C0853A910510F3A497D06459C0843E6E
:10098000910509F464C088F4823E910509F44CC0D5
:10099000833E910509F450C0C83ED10508F448C013
:1009A000CE019A958F3F9E41CDCF863E910509F4A9
:1009B00059C0873E910509F45AC0803222E592075A
:1009C00008F0A4C0811542E5940708F0E3C0811542
:1009D00050E5950708F484C08F710E943C04E5E05F
:1009E000D695C795EA95E1F7CF709C2FEC01D069B9
:1009F0001FC08091D405837081110CC18091D505F1
:100A000083FF16C0C9E2D0E013C08091D40580FDF9
:100A100046C09091D50590FF0BC0C3EED0E084FF97
:100A200007C0C0E0D0E004C08091D40582FDF5CFBE
:100A3000CE01DF91CF9108958091D40582FDE7C06A
:100A40009091D50590FDE6C084FFF2CFEACF80916A
:100A5000D50581FFEDCF8091D405C7EED0E084FDB0
:100A6000E0CFE6CF8091D40583FDF7CFE1CF809131
:100A7000D40583FDD2C09091D50591FFE5CFC4EE9A
:100A8000D0E0D6CF8091D40585FFD2CFBBCF809167
:100A9000D40585FDC5C08091D50583FFC9CFC9E3C5
:100AA000D0E0C6CF8091D40586FFC2CFCAE2D0E0A5
:100AB000BFCF8091D40586FFBBCFC1E3D0E0B8CFD4
:100AC000885A9109499708F0ACCFC85AD0E0CC0FAA
:100AD000DD1FC259DE4F0990D881C02DD464A8CF44
:100AE000C11580E4D80708F052C0C11520E2D20732
:100AF00008F452CF8D2F8F710E943C0490E0982F04
:100B0000882788279F718C2BEC017FC0803A924503
:100B100050F5C03882E5D80708F066C0C03622E537
:100B2000D207B0F08C2F86958695877040E2849F1F
:100B3000C0011124C37021E030E0A90102C0440FBC
:100B4000551FCA95E2F7EA01C82BD92BDA6870CF96
:100B5000C03452E5D50790F5CF71D0E0DC2FCC271B
:100B6000C16FD06A65CFC03C82E5D80708F443C0A6
:100B7000CE01805C9245809708F053CFDC2FCC27C4
:100B8000CC27DF71C06FD06A53CFD06551CFDF70F3
:100B9000D06A4ECF8695869520E2829FC0011124AF
:100BA000C37021E030E0A90102C0440F551FCA956F
:100BB000E2F7EA01C82BD92BDD683ACF8C2F869556
:100BC0008695877050E2859FC0011124C37021E093
:100BD00030E0A90102C0440F551FCA95E2F7EA01AF
:100BE000C82BD92BDC6824CFCF71D0E0DC2FCC27E9
:100BF000C46FD06A1DCF8C2F8F710E943C04C82F08
:100C0000D0E0DC2FCC27CC27DF71D06211CFC2EE31
:100C1000D0E00ECFC0EED0E00BCFC6EED0E008CFD4
:100C2000C5E3D0E005CF80E00895F894E82FE29581
:100C3000EF70F0E041A18F7021E030E0B90102C017
:100C4000660F771F8A95E2F7CB01962F9095942334
:100C500091A392A1892B82A37894089508958091FD
:100C6000BC0280FD14C081FD14C082FD16C08091BD
:100C7000BB02882381F08E3180F420E5829FC00181
:100C800011246EE170E00E949E27862F089584E172
:100C9000089588E2089588E0089580E50895809198
:100CA000BC0280FD17C081FD17C082FD19C0809174
:100CB000BA02882399F0883298F428E0829FC00114
:100CC000112468E270E00E949E276115710551F0C1
:100CD000862F089562E0FCCF64E0FACF61E0F8CFA0
:100CE00068E0F6CF81E00895A0E0B0E0EAE7F6E042
:100CF0000C941A28E901E42FF0E0EA52FC4F61114C
:100D00000BC0E4919E2F8E2F8983E8839A83CDB701
:100D1000DEB7EAE00C943628282F30E0062F10E0EA
:100D2000F491EF2F86E0829F6001839FD00C112405
:100D3000EE24EA94F12CC601B7010E948A27220F03
:100D4000331F45E5469FC001479F900D1124281B86
:100D5000390B822F880F280FC701801B910BF89F3A
:100D6000A001F99F500D1124952F209F5001219F24
:100D7000B00C1124AB2CBB24D701AA19BB095D010F
:100D8000FA9DD001FB9DB00D11248B2F5701A21AA3
:100D9000B1089501209F5001219FB00C309FB00CED
:100DA0001124AB2CBB24EA18FB08FE9D9001FF9D8B
:100DB000300D112463307105C9F01CEFC11613E02A
:100DC000D10650F46130710509F49ECF623071058F
:100DD00089F08E2FE32F98CF6430710571F0663063
:100DE0007105B9F3E52F9B2F8F2F8ECFEB2F852F1A
:100DF0009F2F8ACF852F932F87CF832FE52FF8CF73
:100E00008091CA05823060F4817082608093CA0547
:100E10008091CD05853B18F084EB8093CD05089536
:100E20008A34B0F381708864F1CFFA01882311F01D
:100E300009950895FB01FCCFE0918C02F0918D02A1
:100E4000309729F00190F081E02D0995089580E018
:100E50000895A3E0B0E0EFE2F7E00C9422289C01B3
:100E60008091FA019091FB0182179307A1F03093D2
:100E7000FB012093FA01E0918C02F0918D023097F2
:100E800051F083E089833B832A830680F781E02D3C
:100E9000CE01019609952396E2E00C943E28A3E04A
:100EA000B0E0E5E5F7E00C9422289C018091F80180
:100EB0009091F90182179307A1F03093F9012093E3
:100EC000F801E0918C02F0918D02309751F084E0AE
:100ED00089833B832A830680F781E02DCE0101962A
:100EE00009952396E2E00C943E282FB7F894809160
:100EF000F4019091F501A091F601B091F7012FBF97
:100F000008950E9475072091BF023091C002232BE3
:100F1000222321F080938102909382022091C102CA
:100F20003091C202232B222321F080937F029093E1
:100F30008002E0918C02F0918D02309749F082E0BE
:100F40008093BD020480F581E02D8DEB92E0099540
:100F50000895662309F44BC0E3E3E80FE33150F44E
:100F6000F0E0E754F74D0C94D4270E942F068195AA
:100F70008093C0020E94810708950E942F06F8CF37
:100F80000E942F0681958093BF02F4CF0E942F0606
:100F9000FACF0E944F068093C102ECCF0E944F0609
:100FA0008195F9CF0E944F0681958093C202E2CFCE
:100FB0000E944F06FACF815D990B21E030E001C01D
:100FC000220F8A95EAF78091BE02822B8093BE029F
:100FD000D1CF8091BC0281608093BC02CBCF809145
:100FE000BC028260F9CF8091BC028460F5CF409151
:100FF000BF028D3C59F48091C00287FF0DC0109252
:10100000C002442359F41092BB0208C08E3C81F404
:101010008091C00218169CF3442381F08091C10294
:101020009091C202892B8111A5CF1092BA02A2CF52
:101030008F3C41F447FFF0CF1092BF028091C00275
:101040008823E0CF803D19F41416B4F3E5CF9091D6
:10105000C102893D29F41916FCF61092C102DCCFB9
:101060008A3D19F497FFD8CFF8CF9091C2028B3DFB
:1010700029F497FFD1CF1092C202CECF8C3D19F444
:101080001916CCF3C9CF9FE2980F983090F4815D88
:10109000990B21E030E0B90102C0660F771F8A95F5
:1010A000E2F7CB0180959091BE0289238093BE0226
:1010B000B3CF8D3D31F48091BC028E7F8093BC0212
:1010C000ABCF8E3D21F48091BC028D7FF7CF8F3D59
:1010D00009F0A2CF8091BC028B7FF0CFA4E0B0E0FA
:1010E000E4E7F8E00C9422288FB7F8942091F401FB
:1010F0003091F5014091F6015091F70129833A832F
:101100004B835C838FBF69817A818B819C8124961C
:10111000E2E00C943E289C014FB7F8948091F401D2
:101120009091F501A091F601B091F7014FBF821B9C
:10113000930B08958091F3010895FC019B01809128
:10114000D1019091D2018617970740F0672B29F4BF
:101150008091E8008E778093E800C90140E0009715
:1011600041F4411106C08091E80082FF2FC080E069
:10117000089520918B022223A9F12530A9F1209115
:10118000E80023FD2DC02091E80022FDECCF209146
:10119000E80020FFE4CF3091F3002091F2000097A7
:1011A00019F02830310558F041E02830310509F0B8
:1011B00040E02091E8002E772093E800D0CF4191C5
:1011C0004093F10001972F5F3F4FE9CF80918B0251
:1011D000882341F0853041F08091E80083FFC3CF40
:1011E00081E0089582E0089583E008958091CB0125
:1011F00087FF13C08091E80082FF06C08091E8005D
:101200008B778093E80004C080918B028111F2CF2C
:10121000089580918B028823D9F38091E80080FFA4
:10122000F8CF8091E8008E77ECCF2091E4003091E8
:10123000E50095E6A9018091EC008170882331F0EA
:101240008091E80080FF06C080E008952091E800CA
:1012500022FD1BC080918B02882391F0853091F094
:101260008091EB0085FD10C02091E4003091E500F5
:101270004217530701F391509111DCCF84E0089598
:1012800082E0089583E0089581E00895E8EDF0E0BC
:1012900080818E7F80831092E2001092DA0010929B
:1012A000E100A0EEB0E08C9181608C9380818F771B
:1012B000808319BCA7EDB0E08C918E7F8C938081E8
:1012C0008F7E80831092CA0108958091D205982F55
:1012D0009670963021F488600E941B030895877FE2
:1012E000FBCF982FE42FE2709093E900891308C098
:1012F000762F242F50E0E11111C091E0980FF4CF28
:101300007091EC002091ED005091F00021FD06C09D
:101310009F5F973049F78093E90008953091EB0083
:101320003E7F3093EB003091ED003D7F3093ED0038
:101330003091EB0031603093EB007093EC00209320
:10134000ED005093F0002091EE0027FDE1CF0895CD
:10135000A0E0B0E0EEEAF9E00C941C28C8EDD0E083
:1013600088818F7E8883E7EDF0E0808181608083D3
:1013700084E082BF81E08093CA0188818E7F888368
:1013800002EE10E0F80110821092DA0081EEC82E11
:10139000D12CF601108288818F77888388818068BC
:1013A000888388818F7D888319BC10928B0210926C
:1013B000C901109267021092C80190EEE92EF12C3B
:1013C000F70180818B7F808388818160888342E000
:1013D00060E080E00E947109F60180818E7F808349
:1013E000F801808181608083808188608083F7013B
:1013F00080818E7F8083888180618883CDB7DEB7CE
:10140000E8E00C9438288091CA0580FD0AC0EFEF0F
:10141000F1E0118210821282339652E0EC35F5072A
:10142000C1F7279A35B13F7725B120684FB7F894B7
:101430008FEF91E0FC010196508168E025B9000032
:1014400000C057FF35B9550F000000C000C000C0F4
:1014500035B900C06A9591F752E08C35950751F780
:101460004FBF8FE594E00197F1F700C000000895A9
:10147000A0E0B0E0EEE3FAE00C941C288C01CFEF82
:10148000D1E020E030E0F80194816091CC058091BA
:10149000CB05A9014F5F5F4F7A012F30310594F4DE
:1014A000FE0133966F019E0140E0992331F0409197
:1014B000CD05453B08F044EB9E010E947406970160
:1014C000E601E1CF9E0140E0911106C04091CD05BB
:1014D000453B08F044EB9E010E94740697012F31B2
:1014E000310511F02396CFCF0E94030AF8018481C1
:1014F00090E00196817099278483CDB7DEB7E8E04C
:101500000C943828EF92FF921F93CF93DF93EC0156
:101510008FEFE82E81E0F82E10E04091CD05453B9D
:1015200008F044EB8C8197016091CC05810F0E94FB
:101530007406185F83E0E80EF11C183F71F70E94F3
:10154000030A9A818C8190FF08C08F5F8C83DF91A2
:10155000CF911F91FF90EF9008958150F7CFA0E0B9
:10156000B0E0E5EBFAE00C941C28FC018281DD245C
:10157000D39480FF02C0DD24DA940FEF11E0C0E0C5
:10158000D0E0F80111821082128294E0E92EF12C51
:10159000C12C8091FE018C0D8032ECF16FE10E9434
:1015A0007C27892F082E000C990B8C179D07A9F416
:1015B0008091CD058E9DA0018F9D500D11245595D4
:1015C000479555954795453B08F044EB9801609148
:1015D000CC058091CB050E947406CD0CF1E0EF1A8A
:1015E000F108E114F104A9F621960D5F1F4FCF31E8
:1015F000D10539F60E94030A8091FE0191E0D912CB
:101600000EC0882391F081508093FE01CDB7DEB7E4
:10161000E8E00C94382887FFC5CF815EC3CF90E007
:101620000196BE010E949E27EFCF8EE1EDCF0F9372
:101630001F93CF93DF93CFEFD1E0FE011182108291
:101640001282339682E0EC35F807C1F700E010E033
:101650008091FD01082E000C990B08171907A4F1C1
:1016600080910201082E000C990B8017910764F1FC
:101670004091CD05453B08F044EB9E016091CC05BF
:101680008091CB050E9474060F5F1F4F23960F3188
:101690001105F1F60E94030A809101019091FD016C
:1016A000980F9093FD0120910201280F20930201D1
:1016B000121614F49E311CF0819580930101DF9184
:1016C000CF911F910F910895198218821A82DCCF51
:1016D000AEE0B0E0EEE6FBE00C941C288D879E8720
:1016E000AD85BE8514961C91212F30E0D9010E9452
:1016F000E9279B01AC010E94FF2769837A838B83D2
:101700009C83E0E2F0E0E11BF109A5E5B0E09B017C
:10171000AC010E94FF2769877A878B879C879F018E
:10172000DF010E94E1279B01AC010E940A286D8322
:101730007E838F8398879B01AC0189819A81AB81DD
:10174000BC81280F391F4A1F5B1F69857A858B85ED
:101750009C850E94B227022F30E00A32E0F5C901D1
:10176000880F991F820F931F95958795182F1095B5
:101770003FEFC32E31E0D32EF12C85E5E82EE01AA1
:101780008E2DF1FC802F412F153B08F044EB960184
:101790006091CC050E947406F394B3E0CB0ED11C8B
:1017A000EFE1FE12EDCF0E94030AAD85BE851496CF
:1017B0009C9181E0992319F0903219F48FEF809376
:1017C000000180910001890FED85FE8584832E96AE
:1017D000E8E00C94382885E590E0DC01A21BB30B0F
:1017E000CD01880F991F8A0F9B1F97FFBDCF0196D0
:1017F000BBCF9091CA0590FF0CC0EFEFF1E0818361
:1018000060834283339692E0EC35F907C1F70E947A
:10181000030A0895A3E0B0E0E0E1FCE00C94202886
:101820008C018091FC0181110AC09E012F5F3F4F06
:1018300044EB6FEF0E9474068A818093FC01F801EB
:101840006481613049F06230D1F08091FC0140E068
:10185000662331F040E015C06091FC0140E080E07B
:101860000E94F90BF801848190E0019663E070E03A
:101870000E949E2784832396E4E00C943C284091A8
:10188000FC0180E060E0ECCFA3E0B0E0EAE4FCE043
:101890000C9422289091CA0590FF0DC0453B08F09A
:1018A00044EB9E012F5F3F4F0E9474064B8169817C
:1018B0008A810E94F90B2396E2E00C943E28CF9394
:1018C000DF93EC01EC81F0E0EF52FD4F4491EAEC44
:1018D000F5E0628181810E94440C8C818F5F8C8352
:1018E000DF91CF910895CF93DF93EC01EAECF5E01F
:1018F000438162818C810E94440C8C818F5F8C8338
:10190000DF91CF91089581E08093E00080E28093A1
:10191000D8001092C9008FE19EE40197F1F700C052
:10192000000087E090EBDC0180930F069093100697
:10193000A0931106B093120688E19CE00FB6F894CC
:10194000A895809360000FBE90936000FFCF0F9327
:101950001F93CF93DF93EB018A0190918B02943018
:1019600079F58093E9008FEF9091E80095FD07C02D
:1019700095ED9A95F1F7000081508111F5CF809196
:10198000E80085FF1DC00E941509811114C08091D7
:10199000E80085FD06C08091E8008E778093E8001E
:1019A000F2CF88818093F1000150110901151105D2
:1019B00011F02196ECCF8091E8008E778093E800BB
:1019C000DF91CF911F910F910895CF93DF93D82F7F
:1019D000C92F80911601811113C048E050E06D2F8E
:1019E000792F81E00E94A70C80E2ED2FFC2FA3ED60
:1019F000B1E001900D928A95E1F7DF91CF910895C2
:101A00008091D40587FD06C048E081E050E06D2F4D
:101A10007C2FE8CF40E284E0F9CFBC0146E050E003
:101A200084E00E94A70C0895BC0143E050E084E0EC
:101A30000E94A70C08959091D50592FB222720F9CA
:101A4000281779F080FB92F99093D5056091D40521
:101A50007091D50584E090E00E94872882E00E9482
:101A600010040895882381F063E282E290E00E94EE
:101A7000692861E083E290E00E94692866E284E2DE
:101A800090E00E94692808956FEF82E290E00E9442
:101A900069286FEF83E290E00E9469286FEFEFCF33
:101AA0001F93CF93DF93C62F122F632F8730D8F465
:101AB000C730C8F44430B8F498E0C99FE00111245D
:101AC00050E0440F551FC40FD51F98E3899FC00DE8
:101AD000D11D1124CE0186960E946928612FCE0166
:101AE00087960E946928DF91CF911F910895A0E009
:101AF000B0E0EDE7FDE00C941A28A12CB12CC0E079
:101B0000D0E0650110E019C021E030E0C230D1051D
:101B10001CF4F70125913491402F612F8C2F0E94E6
:101B2000500D22E0E20EF11C0F5F043069F734E043
:101B3000C30ED11C1F5F173049F0C601880F991FD3
:101B40009C012F593D4F790100E0DECF21963CE109
:101B5000A30EB11CC730D105A1F6CDB7DEB7EAE0C0
:101B60000C943628CF93DF93CEEAD1E060E0CE012B
:101B70000E9469282196C11584E0D807B9F7DF9142
:101B8000CF91089580E00E94320D60E085E290E000
:101B90000E9469280E94770D0E94B20D81E00E9488
:101BA000320D089582E290E00E945528833289F434
:101BB00083E290E00E945528813059F484E290E05D
:101BC0000E94552891E0863209F090E0892F8170BB
:101BD000089580E0FCCF0F931F93CF93DF9387305E
:101BE00030F5673020F5443010F528E0629FE001C1
:101BF000112450E0440F551FC40FD51F38E3839FB5
:101C0000C00DD11D1124CE0186960E945528082FA3
:101C100010E0102F0027CE0187960E9455289801CA
:101C2000282BC901DF91CF911F910F91089580E07A
:101C300090E0F8CF462F672F773038F4443028F4FF
:101C4000873018F40E94EB0D089580E090E008952D
:101C5000A0E0B0E0EEE2FEE00C941D287C010091D3
:101C6000D2058091D105082BC7E0D0E010E0C80173
:101C70000C2E02C0959587950A94E2F780FD09C065
:101C80002197A8F7D12C8D2DCDB7DEB7E7E00C94C6
:101C90003928DC2EB7018C2F0E941A0E0E94860470
:101CA000019771F3F0CF0F931F93CF93FC018281C3
:101CB00000811181882391F0662381F0C8010E9480
:101CC000280EC82F682FC8010E943A03B8018C2F34
:101CD0000E941A0ECF911F910F910895C8010E9482
:101CE0007103C82FF3CFCF93DF93D82FC92F0E9452
:101CF000280E6D2F7C2F0E941A0E0E948604DF9101
:101D0000CF910895FC0183819481892BC9F0818151
:101D1000908189238F3FA1F0808191810E94730E71
:101D2000282F92959F70963091F060F4925F9F708B
:101D3000923030F481E0203F79F030F4283E30F0EA
:101D400080E004C09A5FF3CF243FD1F7089581E08B
:101D5000283E18F0213FF9CF089508958091CF05CE
:101D60009091D605892B8093A2019091D00599235B
:101D7000D9F0892B8093A20180911601882309F460
:101D800042C08091D40587FF3EC08DE190E024EAF7
:101D900031E0F90140812F5F3F4F41119F5F81503A
:101DA000C0F791110E94360440E250E06EE872E004
:101DB00082EA91E00E94AA28892B21F180E2E2EADE
:101DC000F1E0AEE8B2E001900D928A95E1F7E09182
:101DD0008C02F0918D023097A9F080911601882332
:101DE00059F08091D40587FF07C08091A2018093AC
:101DF000A30186E08093A2010280F381E02D82EAB4
:101E000091E00995089585E0C1CFCF93C82F88232D
:101E1000C9F08238C9F40E941C0781FD13C089E310
:101E20000E94AF030E94AE0E2FEF37EE83E02150E9
:101E300030408040E1F700C0000089E30E94E303E6
:101E40000E94AE0ECF9108958338A1F40E941C0722
:101E500080FDF8CF83E50E94AF030E94AE0E9FEF96
:101E600021EE34E0915020403040E1F700C0000006
:101E700083E5E4CF8438A1F40E941C0782FDE2CF01
:101E800087E40E94AF030E94AE0E8FEF91EE24E034
:101E9000815090402040E1F700C0000087E4CECFA1
:101EA0008CEF8C0F813A90F580911601882301F117
:101EB0008091D40587FF1CC0EC2FE695E695E6954A
:101EC000F0E0EE55FE4F828190E04C2F477021E00C
:101ED00030E002C0220F331F4A95E2F7822393239A
:101EE000892B81F08C2F0E94E3030E94AE0E0AC062
:101EF000E4EAF1E08AEA91E02191C21799F38E17A2
:101F00009F07D1F78C2F0E94AF039ACF80E28C0FEE
:101F1000883068F4C77081E090E001C0880FCA95EE
:101F2000EAF7C091CF05C82BC093CF0589CF8BE5C9
:101F30008C0F833038F42C2F2452330BC9010E94AC
:101F4000290780CFE8E5EC0FE93150F4F0E0EE0F1F
:101F5000FF1FE259FE4F808191810E944F0772CF8F
:101F600083E38C0F833108F06DCF61E08C2F0E94EA
:101F7000A90768CF882309F456C0823879F40E94F3
:101F80001C0781FF50C089E30E94AF030E94AE0E80
:101F900089E30E94E3030E94AE0E0895833859F44A
:101FA0000E941C0780FF3FC083E50E94AF030E9490
:101FB000AE0E83E5EECF843859F40E941C0782FFF1
:101FC00032C087E40E94AF030E94AE0E87E4E1CFE7
:101FD0009CEF980F913AE8F290E2980F983050F405
:101FE000877091E001C0990F8A95EAF7892F0E94C6
:101FF0002E04D1CF9BE5980F933028F480E090E039
:102000000E942907089598E5980F993128F480E0F7
:1020100090E00E944F07089593E3980F933118F4CE
:1020200060E00E94A90708950F931F93CF93C82FD4
:1020300000E010E0893311F400E510E08C2F0E94DD
:10204000050F0115110539F48C2F0E94BA0FCF919D
:102050001F910F9108958FE99FE00197F1F700C05C
:10206000000001501109EDCF882339F09091CF0580
:10207000892B8093CF050E94AE0E0895882321F00E
:102080000E942E040E94AE0E08950F931F93CF93CB
:10209000DF93C62FD42F122F8823A9F06093C60593
:1020A0000E9475079093C6018093C501C77081E0B7
:1020B00001C0880FCA95EAF70E943410DF91CF91D2
:1020C0001F910F9108958091C605681332C08091C9
:1020D000C5019091C6010E948B08883C910548F586
:1020E000CD130CC0812F0E941410D77081E001C065
:1020F000880FDA95EAF70E943E10E0CFC77001E042
:10210000802F01C0880FCA95EAF70E943E1080E236
:102110008D0F883050F48D2F877001C0000F8A9585
:10212000EAF7802F0E943410DDCF812F0E94141017
:10213000C5CFC77081E001C0880FCA95EAF7DBCF31
:102140001092CF0580911601E4EAF1E0882329F18D
:102150008091D40587FF21C08EE1DF011D928A9511
:10216000E9F780E090E00E94290780E090E00E947B
:102170004F071092D6050E94AE0E86E0EDEBF2E01E
:10218000DF011D928A95E9F71092BB021092BA0204
:102190001092BC020E948107089586E0DECF0E9463
:1021A000A0102FEF84E39CE0215080409040E1F7A5
:1021B00000C0000088E19CE00FB6F894A8958093D9
:1021C00060000FBE90936000FFCFAAE2B0E0EBEE9C
:1021D000F0E10C9421288BEC91E0FC010196209118
:1021E000F100208321E0833D9207B9F78091CC0173
:1021F000893009F456C0C8F4823009F4B3C0833082
:1022000009F482C0813071F18091E80083FFE7C05A
:102210008091CB019091CC019A3008F0E0C0E92F79
:10222000F0E0E453F74D0C94D4278A3009F489C0C8
:102230008B3051F78091CB01813231F78091CF0102
:102240009091D001892B01F78091E800877F8093DE
:10225000E8000E94F6088091CD01809316010E944B
:10226000A010D2CF8091CB01813A71F68091E80025
:10227000877F8093E8008091CF019091D001892BD6
:1022800061F060E080E090E070E00E949D08809145
:10229000E8008B778093E800B7CF60E283ED91E0B0
:1022A000F3CF8091CB01813209F0AECF8091CF0185
:1022B0009091D0018D7F892B09F0A6CF8091E80005
:1022C000877F8093E8008091E80082FF18C090919A
:1022D000F3008091F200029731F48091F100813097
:1022E00011F0863021F48091F1008093F301809108
:1022F000E8008B778093E8000E94F60885CF8091F4
:102300008B028111E0CF80CF8091CB01813A09F01F
:102310007BCF8091CF019091D001892B09F074CFB0
:102320008091E800877F8093E8008091E80080FF3B
:10233000FCCF809116018093F1008091E8008E77A8
:10234000D9CF8091CB01813209F05ECF8091E80036
:10235000877F8093E8000E94F6088091CE018093E9
:10236000C70152CF8091CB01813A09F04DCF8091C6
:10237000E800877F8093E8008091E80080FFFCCF31
:102380008091C701D8CF803889F0823841F580919B
:10239000CF018F70873018F58093E9008091EB00B2
:1023A00085FB882780F91092E90006C08091C8015A
:1023B00090916702911182609091E800977F9093CD
:1023C000E8008093F1001092F1008091E8008E7790
:1023D00023C0811116C08091CD01813011F180910F
:1023E000E80083FF0AC08091E800877F8093E800BF
:1023F0008091EB0080628093EB00AA96E3E00C945E
:102400003D28823061F78091CD01882389F01092B8
:10241000E9008091E800877F8093E8000E94F60839
:10242000DECF81E0933009F080E080936702EFCF48
:102430008091CF018F702FEF280F263080F6809388
:10244000E9002091EB0020FFE2CF933031F480913E
:10245000EB0080628093EB00DACF9091EB0090610B
:102460009093EB0021E030E0A90102C0440F551F1A
:102470008A95E2F74093EA001092EA008091EB001F
:102480008860E8CF8111ABCF1091CD011F7780918B
:10249000E3008078812B8093E3008091E800877FC0
:1024A0008093E8000E94F6088091E80080FFFCCF4E
:1024B0008091E30080688093E30083E0111101C004
:1024C00082E080938B028BCF8058823008F087CFD8
:1024D0004091CD015091CE014C3D83E0580799F5D4
:1024E00083E08A838AE289834FB7F894DE011396EA
:1024F00020E03EE051E2E32FF0E05093570084915A
:1025000020FF03C082958F703F5F8F708A30C8F0C4
:10251000895C90E08D939D932F5F243161F74FBFCD
:102520008091E800877F8093E8006AE270E0CE0146
:1025300001960E949D088091E8008B778093E800C7
:102540004ECF805DE6CF8091CF019091D001252FB5
:1025500033272330310509F44AC078F5213031059D
:1025600009F479C08BE590E0E4ECF1E0223031052C
:1025700009F035CF2091E800277F2093E8002091D3
:10258000D1013091D2018217930708F49C0140E0F9
:102590002115310509F064C0411162C08091E80045
:1025A00082FDC9CF80918B02882329F2853019F2F0
:1025B0008091E80083FFF2CFBECF2132310509F4CC
:1025C0003BC02232310509F00ACF8330910508F073
:1025D00006CFFC01EE0FFF1FE25EFE4F0190F0817F
:1025E000E02D855E9E4FDC018C9190E011C0CA0108
:1025F0009927413089F082309105B1F0892B09F09B
:10260000EECEEDE5F2E0E4918E2F90E0EDE5F2E024
:10261000009709F4E4CEAECFE9E4F2E0E4918E2F26
:1026200090E0E9E4F2E0F4CFE1E3F2E0E4918E2F10
:1026300090E0E1E3F2E0ECCF8330910508F0CFCEFB
:10264000FC01EE0FFF1FEC5DFE4F0190F081E02DCD
:1026500089E090E08FCF82E190E0EFE1F2E08ACF75
:1026600080918B02882309F466CF853009F463CF0B
:102670008091E80083FD5FCF8091E80082FD8ECFDE
:102680008091E80080FF84CF9091F3008091F20068
:102690002115310519F08830910550F041E0089777
:1026A00009F040E08091E8008E778093E80070CFD9
:1026B00044914093F1003196215031090196E8CFC1
:1026C000803809F08CCE8091E800877F8093E80005
:1026D0008091C9018093F10078CE811180CE109154
:1026E000CD01123008F07BCE8091E800877F809387
:1026F000E8001093C9010E94F6081123D1F084E08C
:1027000080938B0242E061EC81E00E94710942E219
:1027100061EC84E00E94710942E261EC82E00E9477
:10272000710942E260EC83E00E94710980918B02A2
:1027300056CE8091E30087FDE2CF81E0E1CF67EEE6
:102740007EEF80E090E00E94872860E082E090E0E9
:102750000E94692860E083E090E00E94692810925E
:10276000D10560E074E184E090E00E94872860E099
:1027700086E090E00E9469286FEF87E090E00E9479
:10278000692840E050E0BA0188E090E00E947B2890
:1027900060E08DE090E00E94692840E050E0BA01DE
:1027A00088E190E00E947B2860E087E190E00E9451
:1027B000692840E050E0BA018CE190E00E947B285B
:1027C00060E070E080E290E00E94872840E050E006
:1027D000BA0188E190E00E947B2880E00E94320DDF
:1027E0000E94C20D40E050E0BA018FE090E00E94EC
:1027F0007B2840E050E0BA0183E190E00E947B2812
:1028000008950F931F93CF93DF938B01D82FC92F78
:102810000E940007A8016D2F7C2F88E090E00E94A5
:102820007B28DF91CF911F910F910895EAECF5E09D
:1028300083E0808311828FEF828384EB8383148211
:1028400063E070E08FEF94EB0E9401140895A4E020
:10285000B0E0EDE2F4E10C9422288091CE058330C3
:1028600018F48F5F8093CE058091CA059091CB05B7
:10287000A091CC05B091CD05BC01CD010E94011401
:102880002496E2E00C943E28A4E0B0E0EAE4F4E10F
:102890000C9422288091CE05882319F081508093D2
:1028A000CE058091CA059091CB05A091CC05B09141
:1028B000CD05BC01CD010E9401142496E2E00C94E8
:1028C0003E28A7E0B0E0E7E6F4E10C941528E82EF6
:1028D000762EF42E622E9091CA0590FF30C0E92F1B
:1028E000E695AE2FB0E0A65DBE4F8C918093C805F3
:1028F0009E7F923041F584EB841708F444EB9E01EF
:102900002F5F3F4F672D8E2D0E9474064B8169818A
:102910008A810E94F90BE092CB057092CC05F0926F
:10292000CD05662061F08091CA059091CB05A091FC
:10293000CC05B091CD05BC01CD010E9401142796B4
:10294000EFE00C943128823019F4F090CD05E3CFFC
:10295000863019F4E090CB05DECF8930D9F3893188
:10296000D1F6E9519E2F9170592EE695F0E0EF5285
:10297000FC4FE4910E2F10E08FEFC82E81E0D82E8F
:10298000A12CB12C9FE1892E912CC501B4010E948C
:102990008A278E2D511017C0860F4F2DA4EBAF152F
:1029A00008F444EB9601672D0E947406A00EB11E38
:1029B000B3E0CB0ED11C8CE5C81682E0D80629F70F
:1029C0000E94030AA8CF861BE8CFEAECF5E08181DC
:1029D00021E043816281885F0E9461140895EAECDE
:1029E000F5E0818121E04381628188500E94611479
:1029F0000895EAECF5E0628128E0620F08F46FEFD9
:102A000021E0438181810E9461140895EAECF5E0A0
:102A1000628128E0621B08F460E021E0438181814B
:102A20000E9461140895EAECF5E0438128E0420F2A
:102A300008F44FEF21E0628181810E9461140895C2
:102A4000EAECF5E0438128E0421B08F440E021E095
:102A5000628181810E94611408956091CA05669522
:102A600070E04BE050E083E091E00E949D28892BCC
:102A700019F481E08093C9050E9475079093730251
:102A8000809372020895A4E0B0E0E9E4F5E10C94CB
:102A900022289091CA0590FF34C08823B1F1853275
:102AA000B0F58F77880F9091CA059170892B80932C
:102AB000CA05662361F08091CA059091CB05A0916B
:102AC000CC05B091CD05BC01CD010E9401146091EF
:102AD000CA05669570E04BE050E083E091E00E940B
:102AE0009D28892BB1F01092C90581E08093750271
:102AF00020E04091CD056091CC058091CB050E94EE
:102B000061142496E2E00C943E2881E0CBCF84E26D
:102B1000C9CF0E942D15E9CF8091CA0586958F5F98
:102B2000853208F081E061E00E944315089590919C
:102B3000CA0596958FEF890F913009F484E261E020
:102B40000E9443150895EAECF5E08081816080835E
:102B500060E086950E94431508959091CA0590FF04
:102B600008C09695981728F0961718F40E948C15AF
:102B7000089561E00E9443150895ACE0B0E0E3ECF5
:102B8000F5E10C9416286C01DC019C9111968C9156
:102B9000119713962D913C91232B09F4F2C08923B0
:102BA0008F3F09F4EEC061E0C6010E94530E8C0114
:102BB0008091C505F6012281811126C1211111C024
:102BC0000635FCE71F0709F4EDC008F06FC00335B8
:102BD0003CE7130709F4B6C004354CE7140709F4C1
:102BE000D4C0D60112968C91882309F420C698018E
:102BF000225037472031310508F02EC68FEF93E081
:102C00000E9455288111ACC002505EEAE52EFF24D7
:102C1000F39401117EC11A821982FE01339686E077
:102C2000DF011D928A95E9F74AE0642E5701BFEF54
:102C3000AB1ABB0AC7010E94552889831A828823D0
:102C400009F48EC0813009F097C187010E5F1F4FD4
:102C5000C5010E9455288A83882309F481C09FEF0B
:102C6000980F933008F064C1E3E0EE0EF11CC80148
:102C70000E9455288B83882309F472C01C828E0120
:102C80000F5F1F4FD8018C91882381F2813009F0AA
:102C9000AEC111969C91119712968C91913009F0CA
:102CA0006DC10E5F1F4F0E9414106EC107351C4787
:102CB00009F494C0F6018281E080F180882309F450
:102CC000BDC3C7010E94280E182F682FC7010E949C
:102CD0003A03B701812F0E941A0E0E9486048C01CC
:102CE000D6011296FC9012971596EC90E2942FE084
:102CF000E2228091D30587708823C1F0AF2CFF209A
:102D0000B1F0812F807F803421F080E2800F883005
:102D100068F08091D50582FF09C082E00E9410040E
:102D20008091D3058770AA24A3948111A12CE12F4F
:102D3000E295EF70103C08F0BEC3F0E0EA52F74DA8
:102D40000C94D4270E94A01080E00E941B0383EC07
:102D500092E09093C4058093C30581E08093C505FC
:102D60008091D3058770882361F0D60112968C91EB
:102D7000882339F08091D50582FF03C082E00E944C
:102D800010042C96EEE00C9432280E94A01080E0F3
:102D90000E941B038DEB95E09093C4058093C305BF
:102DA00082E0DCCFA0901901B0901A01F090D2051A
:102DB0000E94A01080E00E941B0303EC12E0A0160A
:102DC000B10631F40E94A0108F2D0E941B03C8CFC2
:102DD000C8010E94BD150A5F1F4FF1CFA0901701D7
:102DE000B0901801F090D2050E94A01080E00E94DF
:102DF0001B030DEB15E0A016B10621F3C8010E94DC
:102E0000BD1506501109F7CFA80143555C47433063
:102E10005105C0F591E00535ACE71A0709F490E0DB
:102E2000921709F49DCF813029F08230B9F01092C9
:102E3000C50596CF8091C3059091C405B2E0833C4F
:102E40009B0729F0FC0136972281211105C0909340
:102E50001A0180931901EBCFCF01F0CF8091C30508
:102E60009091C405E5E08D3B9E0729F0FC01369664
:102E70002281211105C09093180180931701D7CFAB
:102E8000CF01F0CF813011F1823009F0AACE40910C
:102E9000190150911A018091C3059091C405211127
:102EA00005C025E08D3B920709F49BCE9C012A5F6B
:102EB0003F4F4217530709F494CE26E0F601DC0198
:102EC00001900D922A95E1F706971EC040911701D7
:102ED000509118018091C3059091C405211105C03E
:102EE000F2E0833C9F0709F47CCE9C012650310917
:102EF0004217530709F475CE26E0F601DC01019074
:102F00000D922A95E1F706969093C4058093C30528
:102F100068CEE114B4E0FB0609F422CFC7010E9499
:102F20005528F70131967F018111F3CF015071CE01
:102F30008430C1F432E0E32EF12CC8010F5F1F4F43
:102F40000E945528E1E0F0E0EC0FFD1FEE0DFF1DA3
:102F50008083882309F404CF8C3731F4FE01EE0D11
:102F6000FF1D128278018BCEFFEFEF1AFF0A27E0D8
:102F7000E216F10411F7F4CE750181CE923039F4E6
:102F80000E5F1F4F0E94050F0F5F1F4F7BCE9330C8
:102F900029F40E5F1F4F0E94BA0FF6CF943019F03C
:102FA0000F5F1F4FF1CF0E5F1F4F20E030E0A801F1
:102FB0004F5F5F4F8053990B8A30910560F0211568
:102FC000310511F38FE99FE00197F1F700C0000090
:102FD00021503109F4CF629EB001639E700D11241F
:102FE0009C01260F371FF80181818A01E0CFE82F6D
:102FF000F0E0E85EFA4F7490282F269526952695E6
:1030000030E0F901E85FFA4F94918770F901E850D8
:10301000FB4FA490B12C082E02C0B594A7940A943B
:10302000E2F7A1E0AA22BB24F901E851FB4F84900A
:10303000912C082E02C0959487940A94E2F7B1E08F
:103040008B229924292F30E002C0359527958A9547
:10305000E2F720FF0AC081EE0E94050FAB28D1F4F1
:10306000872D0E94141081EE12C0AB2849F4872DE1
:103070000E9414108114910409F486CF8CE213CEBF
:1030800086EE0E94050F872D0E94141086EE0E9486
:10309000BA0FF0CF86EE0E94050F872D0E94141004
:1030A00086EE0E94BA0FDFCF81E00E941E030E94CD
:1030B000650956CE81E00E942A03F9CF82E0F5CF60
:1030C00082E0F9CF26E241EE61EE0E94451048CE43
:1030D00027E245EE65EEF9CF26E241EE60EEF5CF50
:1030E00027E245EE64EEF1CF26E241EE62EEEDCF4F
:1030F00027E245EE66EEE9CF28E241E0EBCF06316C
:10310000ECE71E0709F0DBC08091C7058111D5C02F
:1031100089E20E94E303CAC384E090E00E9463282E
:103120009093D5058093D405F801E150F047E23241
:10313000F10520F4EE51F74D0C94D4278091D4057D
:1031400081608093D4056091D4057091D50584E0A9
:1031500090E00E9487280E94A01002CE8091D505A1
:1031600088608093D505EFCF8091D4058260E9CF48
:103170008091D4058460E5CF8091D4058860E1CF4B
:103180008091D5058160EDCF8091D5058260E9CF32
:103190008091D4058061D5CF8091D4058062D1CF54
:1031A0008091D4058064CDCF0E94A0108091D40579
:1031B0008068C7CF8091D4058C60C3CF8091D5053E
:1031C0008360CFCF8091D4058E7FBBCF8091D50512
:1031D000877FC7CF8091D4058D7FB3CF8091D405F1
:1031E0008B7FAFCF8091D405877FABCF8091D50502
:1031F0008E7FB7CF8091D5058D7FB3CF8091D405D9
:103200008F7E9FCF8091D4058F7D9BCF8091D405F9
:103210008F7B97CF0E94A0108091D4058F7791CF9C
:103220008091D405837F8DCF8091D5058C7F99CFF8
:103230008091D40582FB992790F921E0922790FB99
:1032400082F990FB83F97DCF8091D505982F9095D9
:1032500091708E7F892B90FB81F983CF9091D4055B
:10326000892F8F7B96FF80646CCF0E94A010909175
:10327000D405892F97FB87F9805863CF61E08EE0F2
:1032800090E00E9469285FCF60E0F9CF9091D4056B
:10329000892F8F7E94FF806154CF9091D405892F20
:1032A0008E7F90FF81604DCF9091D505892F877FCC
:1032B00093FF886056CF85E3F7C285E32ACF8091DC
:1032C000CF058272F801E052F847E531F10508F0C8
:1032D000F1CCEC5FF64D0C94D4278091CA0580FFA9
:1032E00018C08E7F8093CA058091CA059091CB0546
:1032F000A091CC05B091CD0589879A87AB87BC8713
:10330000BC01CD010E9401141092C9050E94030A5C
:1033100027CD81608093CA0561E086950E944315A0
:103320001FCD47E955E16CE875E10E94150718CDFE
:103330004CE855E167E975E1F8CF4FEE54E165EEF1
:1033400074E1F3CF45EE54E16FEE74E1EECF46E069
:1033500055E169EF74E1E9CF49EF54E166E075E1C9
:10336000E4CF40E255E163E175E1DFCF43E155E1B0
:1033700060E275E1DACF44E454E167E274E1D5CF6D
:1033800047E254E164E474E1D0CF61E081E0C6CF6C
:1033900065E082E00E94AD15E3CC68E086E0FACFFC
:1033A0006EE089E0F7CF64E18FE0F4CF67E185E17B
:1033B000F1CF61E088E1B2CF62E289E1EBCF61E079
:1033C00083E2ACCF0A359CE71907A1F1C8F40130BC
:1033D000BCE71B0769F10330ECE71E0719F1011583
:1033E0001C4709F067CC0E94A0104FEF84E39CE0DB
:1033F000415080409040E1F700C000000E94830CE3
:103400000B352CE71207C1F00C351C4709F052CCE4
:103410008091D50582FB882780F991E089270E9459
:103420001B0D48CC6FEF7FEF80E090E00E94872873
:103430000E94CF1081E0F3CF80E0F1CFC7010E945E
:103440007103182F46CCB12FBF70EB2E103118F03E
:10345000E29490EFE922FF20B9F0EE2069F080E2DB
:10346000800F883010F0011109C08091CF058E299E
:103470008093CF050E94AE0E802F67C08091D60545
:103480008E298093D605F6CF802F0E94BA0FEE20AA
:1034900091F080E2800F883010F0011104C08E2D71
:1034A0000E942E0406C0E0948091D6058E21809360
:1034B000D6050E94AE0EAA20A9F08091D30580FD0A
:1034C00011C0F60112828595859585950E941E038F
:1034D000C6010E94BD158091D3058595859585957A
:1034E0000E942A0360E0C6010E94530E4ACCE12FDD
:1034F000EF70BE2E107F103219F0B29480EFB82218
:10350000002399F0013009F453C0FF2009F45DC095
:10351000EE2009F453C0D60115968C91159780FFC3
:10352000ABCF8F7015968C9349C02091D50522FDA5
:1035300017C0FF2069F0BB2039F08091CF058B299F
:103540008093CF050E94AE0E80E00E94050FB3CF9E
:1035500080E00E94BA0FBB2009F4ADCF8B2DA0CF25
:10356000FF20A1F09091D0058B2D892BE11003C095
:103570000E943410A0CFF1E0EF12FACF22FF9BCFD0
:10358000981709F498CF8093D00595CFE11006C025
:103590000E9436048B2D0E943E108DCF21E0E21652
:1035A00009F489CF8B2D0E943E100E94360483CFF0
:1035B000FF2031F035E03E1508F47DCF8B2DD8CFBC
:1035C00044E04E1508F477CFE5CFEE2019F3093328
:1035D00049F4BFEFE7EEF3E0B150E040F040E1F72F
:1035E00000C00000802F0E94BA0F65CF812F869502
:1035F00086958370882361F0813009F05CCFC80123
:103600009370F11002C080E090E00E944F0753CF0A
:10361000C8019370F11002C080E090E00E94290779
:103620004ACF6F2D802F0E94A90745CF812F83702D
:10363000811136C0F11027C0402F42954695477042
:10364000440F440F802F8F70042E01C0880F0A94FE
:10365000EAF70071002341F02FE030E001C0220FB3
:103660004A95EAF7022F00951695169513701230B9
:1036700091F0133071F02091D105113049F0802B79
:1036800082230E9418030E941C070E94060313CF86
:10369000822B802BF6CF802B9091D1058927F1CFFB
:1036A000FF2051F110FFEFCF402F42954695477014
:1036B000440F440F802F8F70042E01C0880F0A948E
:1036C000EAF70071002341F02FE030E001C0220F43
:1036D0004A95EAF7022F0095169516951370123049
:1036E00089F0133069F02091D205113041F0802B20
:1036F00082230E941B03C7CF823028F2D5CF822BB2
:10370000802BF7CF802B9091D2058927F2CF1F70A5
:10371000FF2039F0812F0E941E03802F0E94341059
:10372000B2CF802F0E943E10812F0E942A03ABCF80
:10373000023F69F178F4003FC1F0013F09F43EC057
:10374000FF2009F462C0EE2009F45CC0802F0E94C3
:10375000050F99CF033F11F1043F61F1F110F3CF51
:10376000E11061C0812F8F71E0CFFF2069F024E06C
:103770002E1508F488CF1F7181E090E0012E01C062
:10378000880F0A94EAF7BFCF35E0E316F2CF812F16
:103790008F71F110CACF0E941E0375CF80E0FF2009
:1037A00009F4A7CF1F7181E0012E01C0880F0A9490
:1037B000EAF79FCF8091D50582FD06C0812F8F71DA
:1037C000FF2009F4B2CFE7CFFF2089F01F71812FCE
:1037D0000E941E038091D50582FF07C048E0149F18
:1037E000C001112483608093D305812FD4CF81E061
:1037F0000E94100481E08E1508F045CF82E00E94FF
:10380000100441CF812F8F71C6CFEE2009F4AACFCB
:10381000093349F49FEFA7EEB3E09150A040B040C8
:10382000E1F700C00000802F0E94BA0F2CCF0115D5
:10383000F7E71F0709F43ECC013027E7120709F428
:103840003FCCF801E851FC47E730F10508F057CCD0
:10385000E75EF64D0C94D427011537E7130709F4FA
:1038600023CC013047E7140709F428CCF801E851CC
:10387000FC47E730F10560F31092C605C801905788
:10388000839708F449CC0631FCE71F0709F09ACD6D
:103890008091CF058A7A91E0811101C090E09093E8
:1038A000C705811108CD89E20E94AF030E94AE0EC8
:1038B00057CA1F93CF93DF9380910E06803108F093
:1038C0004CC080910B06882309F447C08091D8052D
:1038D0002091D7056091090630910A06C0910C0627
:1038E000D0910D06732F76232817B9F190E0209719
:1038F00009F443C016E07F3F09F43FC0189FF00170
:10390000199FF00D1124DF01A752BA4F11964C9167
:10391000119734132CC04C91461329C012964C9128
:10392000129741111EC013964D915C914C1B5D0B7B
:10393000483C5105E0F480910E068F7080618093C1
:103940000E06E252FA4F80818F708061808389E099
:1039500096E00E94BD150E94A503DF91CF911F91B3
:1039600008950196877099272813C8CFF6CF01963E
:10397000877099272813BFCFF0CF01968770B4CFF7
:10398000ABE0B0E0E6ECFCE10C9418288C0185E09B
:10399000F801DE01179601900D928A95E1F7F80182
:1039A000C280A380B48089E0882E86E0982E809122
:1039B000090690910A0620910C0630910D062115FA
:1039C000310509F40CC1492F48234F3F09F407C1C1
:1039D000D0900B06A501421B530BDD2009F4D2C089
:1039E000F0900E06483C510508F0ACC021815FE024
:1039F0005F1508F46BC0EC2C291313C09081981349
:103A000010C0C1101EC08F2D8F70806180930E0674
:103A1000C4010E94BD1580910E06F8018583E12C3A
:103A200050C08F819885A114B10489F0282F2923D3
:103A30002F3F69F0E091D8052091D70536E0CC20E2
:103A4000E1F080910E06816080930E06E8CFCC20D5
:103A500031F3F7CF4E2F50E03E9FF0011124E75293
:103A6000FA4F6181691306C06081681303C06281E7
:103A70006111D5CFFA013196E770E213EBCF8F8158
:103A800098850E94730E292F22952F70903248F44A
:103A90009F70992311F08823A1F0805E883088F010
:103AA00004C0225F2F70223028F0C8010E94BD158B
:103AB000ED2C07C09F70992381F3F8019581903117
:103AC00060F78E2D2B96ECE00C943428291312C04D
:103AD000908198130FC0C1100DC0F582C8010E94DB
:103AE000BD1586E0F801A9E0B6E001900D928A9537
:103AF000E1F725C0C8010E94820E882309F46BC03B
:103B0000CC2009F468C080910E06803270F080915C
:103B1000090690910A069A8389831B82BD82AC8232
:103B2000FE82CE0101960E94BD1586E0F801A9E053
:103B3000B6E001900D928A95E1F70E94591CEE249F
:103B4000E394BFCFFFE0FF1550F089E096E00E94BC
:103B5000BD1586E0F40111928A95E9F760CFF8016E
:103B600021819213C7CF90819813C4CFC110C2CFC7
:103B7000F582C8010E94BD1586E0F40111928A9574
:103B8000E9F7DDCF483C510520F7CC2021F1218118
:103B9000921317C09081981314C080910E0680FD77
:103BA000A0CF803108F49DCF8583807F803F09F4CA
:103BB00095CF8581982F907F905F8F70892B85831B
:103BC0008DCFC8010E94820E8111AFCF80910E0669
:103BD000816080930E06C8010E94BD15B0CFCC2035
:103BE000D1F3C8010E94820E8823A9F39ECFA7E1DA
:103BF000B0E0EDEFFDE10C9421284B8B5C8B962F10
:103C00006D8B7E8B8F8B61111092D6051A8A85E0A1
:103C1000FE017396DE011D9601900D928A95E1F7E3
:103C20009F8786E0FE013D96DE01179601900D927A
:103C30008A95E1F7CE0107960E94C01C811131C020
:103C400086E0FE013796DE01119601900D928A956D
:103C5000E1F78F8198852091D7054091D8056A8535
:103C60007B85672BF1F089238F3FD9F030E0C901C4
:103C700001968770992750E084179507E9F096E040
:103C8000929FD001939FB00D1124A752BA4FFE010D
:103C9000319601900D929A95E1F78093D7050E9495
:103CA000A50316E08091D8059091D705891312C01D
:103CB0006796E3E00C943D280E94A0101092D7056F
:103CC0001092D80586E0E9E0F6E0DF011D928A95C2
:103CD000E9F7E7CF189FC001112487529A4F0E943D
:103CE000C01C882329F38091D80590E00196877045
:103CF00099278093D805D6CFA7E0B0E0E2E8FEE1AF
:103D00000C9417281A821982FE01339685E0DF0190
:103D10001D928A95E9F78FE4A82E81E0B82E8E01D6
:103D20000F5F1F4F96E5E92E91E0F92E4801CC2454
:103D3000C394D12CF50181915F018F3F09F442C0FA
:103D4000F894E82FE295EF70F0E021A18F70A601C2
:103D500002C0440F551F8A95E2F7CA01922F982B93
:103D600091A392A18095892382A3789400C0E6E56F
:103D7000F1E031E0712C21912F3F09F461C0A22FB5
:103D8000A295AF70A05EB0E08C9190E02F7002C061
:103D9000959587952A95E2F78170811151C0832FFF
:103DA000782A330F51E0EA35F50729F7F501319705
:103DB00080818F3F11F00E94150680EA8A95F1F705
:103DC000D8017C920F5F1F4FEA14FB0409F0B2CFB9
:103DD00047E050E0B4018CE592E00E94AA28892BCC
:103DE00089F187E0F401ACE5B2E001900D928A958B
:103DF000E1F781E08093C4010E9475079093C301AD
:103E00008093C2018091C2019091C3010E948B08EE
:103E10000597E0F047E050E06CE572E084E892E05E
:103E20000E94AA28892B49F087E0ECE5F2E0A4E89B
:103E3000B2E001900D928A95E1F71092C40106C09C
:103E400080E0AECF8091C4018111DCCF2796EDE0F8
:103E50000C943328CDB7DEB7A9970FB6F894DEBF20
:103E60000FBECDBF85B7806885BF85B7806885BF29
:103E700084B7877F84BF0FB6F894A89580916000BF
:103E8000886180936000109260000FBE80E890E02F
:103E90000FB6F89480936100909361000FBE83E1A8
:103EA00096E09093A1018093A0010E9446090E9490
:103EB000A8098091E20084608093E2007894809168
:103EC0008B02882399F08091E9001091EC001795FE
:103ED000112717958F70182B1092E9008091E80038
:103EE00083FD0E94E5101F701093E90082E084BDFD
:103EF00093E095BD9AEF97BD80936E000E94D20D1E
:103F0000811102C00E94C20D82E080937C026CE6A7
:103F100071E04AE651E00EE611E05A01FB0121E0B2
:103F200030E08191E82EE294AFE0EA22F12CD70153
:103F30009196DC908F70D90102C0AA0FBB1F8A95A1
:103F4000E2F7CD019A2F90959D21D70191969C93F0
:103F5000919792969C919297892B92968C93D501EA
:103F60008D915D01E82EE294BFE0EB22F12CD701A8
:103F70009196DC908F70D90102C0AA0FBB1F8A9561
:103F8000E2F7CD019A2F90959D21D70191969C93B0
:103F9000919792969C919297892B92968C930E175B
:103FA0001F0709F0BECFEFE8F1E03197F1F700C04D
:103FB000000010917C027DE7E72E72E0F72EECE620
:103FC000F1E08E2F861B811708F45BC00FE411E02F
:103FD00056E5E52E51E0F52EF80181918F018F3FD6
:103FE00011F00E941506E016F106B1F786EF0E9467
:103FF000150687EF0E94150683E90E94150686E9DB
:104000000E94150687E0E4E8F2E0DF01282F1D9208
:104010002A95E9F7ECE5F2E0DF011D928A95E9F7D0
:1040200080E090E00E946328873E9E4F21F40E942A
:10403000D20D811102C00E949F1382E090E00E9485
:10404000552880936A0284E090E00E946328909350
:10405000D5058093D4050E947C1EEFE3FCE93197DF
:10406000F1F700C000000E947C1E8091840280FF56
:1040700030C06FEF7FEF80E090E00E9487280E94C1
:10408000830C0191802F82958F70805E90E0DC011F
:104090002C91DA013D91AD01832F82958F70805E66
:1040A00090E0DC018C9190E03F7002C0959587957F
:1040B0003A95E2F78170880F30E00F7002C03595B5
:1040C00027950A95E2F72170822BD7018D937D0108
:1040D00078CF83E090E00E9455280E941803509A00
:1040E000589A559A5D9A549A5C9A8091630281110C
:1040F0003AC080E090E00E946328873E9E4F21F402
:104100000E94D20D811104C00E949F130E941614B8
:1041100088E090E00E945D286093CA057093CB050B
:104120008093CC059093CD05623070F40E941614F4
:1041300088E090E00E945D286093CA057093CB05EB
:104140008093CC059093CD050E9400071092C9057D
:104150008091CA0580FF04C060E086950E944315E7
:1041600081E0809363028091D40580688093D405B8
:104170006091D4057091D50584E090E00E94872875
:104180008EE091E090938D0280938C0238E1C32EF3
:10419000D12C40E4742EFF24F394EE24E394809118
:1041A0008B028530A1F480918B02853009F459C0CF
:1041B0000E94A0100E941C070E9406031092660233
:1041C0008091650281110E94A3150E942D150E9405
:1041D0007C1E9BE6892E92E0992E24E8A22E22E0F6
:1041E000B22E22E732E0D501F40191918D912E1784
:1041F0003F0709F49CC09817C1F310E0D5010D9159
:104200005D01F40141904F01401629F14026612CD7
:1042100055245394852D84218823A9F069821A831B
:1042200091E0852D8023811101C090E09B830E9445
:1042300075078160782F9D838C8349815A816B81BA
:10424000892F0E94F71D6394550CF4E06F12E2CFA2
:10425000F401319700831F5F173081F60E946E08CA
:1042600086C080918B02843009F437C080E00E94C0
:1042700006031092C9058091660281110DC0E0927B
:1042800066028091CA05982F9170909365028E7F87
:104290008093CA050E94030A109264020FB6F89434
:1042A000A895C09260000FBE7092600083B7817FB6
:1042B000846083BF83B7816083BF7894889583B718
:1042C0008E7F83BF0FB6F894A895809160008861B7
:1042D00080936000109260000FBE80916702882377
:1042E00009F461CF0E947C1EE4E8F2E08BE892E0E2
:1042F0002191211104C08E179F07D1F754CF80E17F
:1043000089BD82E189BD09B400FEFDCF8091D8004E
:104310008F7D8093D8008091E00082608093E000E0
:104320008091E00081FDFCCF0E94A0103CCF98134B
:1043300064CF0E9475078C01809168029091690298
:1043400008171907A1F08FEF89838A831B820E94C7
:1043500075078160782F9D838C8349815A816B8199
:10436000892F0E94F71D10936902009368028091C3
:10437000C9058823C9F18091C805E091CA05E69571
:10438000E81BE09374028230A9F5F0E0EC51FB4F9A
:10439000E4910E2F10E08FE5A82E8CE0B82E8091CE
:1043A0007502882361F0109275020E947507909340
:1043B00073028093720210927702109276020E942A
:1043C00075072091720230917302821B930B8F3F0D
:1043D0009F4750F4200F311F3093730220937202D5
:1043E00082E792E0F5010995912C812C94E0A92EA9
:1043F000B12C4DC1853109F447C068F4893061F1B1
:104400008F30B1F18630E9F000ED17E0BEE2AB2E5F
:10441000B6E0BB2EC4CF833209F441C004EF11E0F3
:1044200058E3A52E5AE0B52E843209F4B8CF08E23D
:1044300010E048E6A42E4BE0B42E883109F4AFCF4B
:10444000E3CFF0E0EF51FB4FE4910E2F10E0A3E734
:10445000AA2EACE0BA2EA3CFE695F0E0E252FB4FD5
:10446000E4910E2F10E0F2E8AF2EFAE0BF2E97CFC6
:10447000E695F0E0E552FB4FE4910E2F10E0EFEAF5
:10448000AE2EEAE0BE2E8BCFF0E0E852FB4FE49177
:104490000E2F10E077E1A72E7BE0B72E80CFE6ED60
:1044A000F4E0059114916AE0A62E6CE0B62E77CF69
:1044B000892D90E0FC01E459FE4F6081E62FE295E2
:1044C000EF70E05EF0E04081FC01E659FE4F508164
:1044D000E52FE295EF70E05EF0E0208130E05F7064
:1044E00002C0359527955A95E2F72170220F50E0CA
:1044F0006F7002C0559547956A95E2F74170242B7D
:10450000DC01A358BD4FEC913E2F3370231709F403
:10451000BDC0EE0FEE0FE22BEC93EF70F0E0E65A29
:10452000FE4F8C0106581D4F2081D8013C91230F6E
:104530002C9324300CF48FC0FC01E858FD4F90817F
:104540009F5F9083911049C032E0632E69A21AA246
:10455000FBA20E9475078160782F9DA38CA349A1BF
:104560005AA16BA1892F0E94F71D69821A821B82B2
:104570000E9475078160782F9D838C8349815A81C1
:104580006B81892F0E94F71D80917A028D3F0CF07C
:1045900071C08091780281508093780219A21AA28A
:1045A000FBA20E9475078160782F9DA38CA349A16F
:1045B0005AA16BA1892F0E94F71D19821A821B82B2
:1045C0000E9475078160782F9D838C8349815A8171
:1045D0006B81892F0E94F71D4DC0B1E09B124AC02C
:1045E00022E0622E69A29AA29BA20E9475078160B6
:1045F000782F9DA38CA349A15AA16BA1892F0E945A
:10460000F71D69829A821B820E9475078160782F4C
:104610009D838C8349815A816B81892F0E94F71D6C
:1046200080917B028D3F34F5809179028150809397
:10463000790219A2FAA2FBA20E9475078160782F65
:104640009DA38CA349A15AA16BA1892F0E94F71D9C
:104650001982FA82B4CF2D3F0CF0A0C0FC01E858BB
:10466000FD4F808181508083992009F497CFE1E04C
:104670009E16F9F221E0D8018C91082E000C990BBE
:10468000B5010E949E27F8018083822A939480912D
:104690007C02981608F40CCF81100E946E0886E008
:1046A000EDEBF2E0DE01119601900D928A95E1F7B3
:1046B0001092BF021092C0021092C1021092C20268
:1046C0008B819C81892B882379F080918102909144
:1046D00082020E948B089C018091BB02811160C004
:1046E0002B30310508F062C08D819E81892B882393
:1046F00079F080917F02909180020E948B089C014A
:104700008091BA02811191C02B30310508F093C01D
:1047100046E050E0BE016F5F7F4F8DEB92E00E945C
:10472000AA28892B61F48091BF029091C002892B45
:104730009091C102892B9091C202892B81110E9414
:10474000810786E0FE013196ADEBB2E001900D925B
:104750008A95E1F70E941C07182F80918302181791
:1047600039F0109383020E946E08812F0E94060385
:1047700080918B02843009F012CD83E08093E900B0
:104780008091E80082FF0BCD8091E80085FD92C00A
:104790008091E8008B778093E80001CD20E06BCF1B
:1047A0002531310508F4A0CF8F3F19F08F5F80933A
:1047B000BB021B81112359F00E942F0691E01116B4
:1047C0000CF09FEF899F802D11248093BF021C81E4
:1047D000112359F00E942F0691E011160CF09FEF63
:1047E000899F802D11248093C0023091BF02332312
:1047F00009F47ACF2091C002222309F475CF45EB4A
:104800003403C0011124892F911101C081E08093EC
:10481000BF0245EB240390011124332319F0309398
:10482000C00262CFF092C0025FCF2135310508F49B
:104830006FCF8F3F19F08F5F8093BA021D811123D4
:1048400059F00E944F0691E011160CF09FEF899FDE
:10485000802D11248093C1021E81112359F00E94E2
:104860004F0691E011160CF09FEF899F802D1124C7
:104870008093C2023091C102332309F449CF2091C1
:10488000C202222309F444CF45EB3403C0011124B2
:10489000892F911101C081E08093C10245EB24036F
:1048A00090011124332319F03093C20231CFF092DA
:1048B000C2022ECF0E941509882379F08091E8006A
:1048C0008B778093E8008981EFEFE80FE33190F573
:1048D000F0E0E05EF64D0C94D42780E2A82EB12CD7
:1048E0008E010F5F1F4F8091E80085FD0AC0809107
:1048F000E8008B778093E8000E941509882399F3DC
:10490000DDCF8091F100D8018C93B1E0AB1AB108F2
:10491000A114B10499F20F5F1F4FE5CF1A828BE00B
:104920008B831AC08A81833049F138F4813061F079
:104930008230D9F08FEF89830FC08430D9F71B8282
:104940001C821D821E8208C00E946E080E94DA2707
:104950006B837C838D839E8340E250E0BE016F5F5A
:104960007F4F82E00E94A70C1ACC85E290E00E9463
:1049700055281B821C821D828E83EECF87E0E4E8DF
:10498000F2E0DE01139601900D928A95E1F7E4CFF3
:104990008A81823081F0853069F68091CA0580FF76
:1049A0001BC08091CA058E7F8093CA051092C905ED
:1049B0000E94030AD1CF8B819C81AD81BE818EA3E1
:1049C0009FA3A8A7B9A7BC01CD010E94DA2785E261
:1049D00090E00E946928C0CF0E94A315BDCF4C81F2
:1049E0006B818A810E94EB0D9827892798279E83E7
:1049F0008D83B2CF2D813E813227232732274C81F0
:104A00006B818A810E94500DA7CF0E94770DA4CFA1
:104A10009A81923009F08ECF8830B1F1893009F453
:104A20005EC08B81833061F180F48130B9F08230D7
:104A300009F092CF8C81882309F4B3CF0E94A3158B
:104A400060E08C810E94431587CF843009F084CFC9
:104A500020E04091CD056D818C810FC08C81A4EB4D
:104A60008A9FC00111246FEF70E00E948A27462FB1
:104A700020E06091CC058091CB050E9461146CCF41
:104A80008C818093CE0568CF8B81833029F160F4CF
:104A90008130A1F0823009F05FCF8091CA0580FF9C
:104AA00019C086958C8358CF843009F055CF8091FA
:104AB000CB058C838091CC058D834ECF8091CD0525
:104AC000BFEF8B9FC001112464EB70E00E948A2726
:104AD0006C8342CF80E0E6CF8091CE05E3CF80911A
:104AE000CA059091CB05A091CC05B091CD058EA3C0
:104AF0009FA3A8A7B9A7BC01CD010E9401142CCF88
:104B000080E18A8329CF82E08A8382E509CF0A8106
:104B10001B811027012710278C814801880E911CCA
:104B20005E0195E0A90EB11C0815190509F414CF12
:104B300080E00235A2E01A0728F4C80182559E4F92
:104B40000E945528F50181935F010F5F1F4FECCF45
:104B50000A811B81102701271027CE0101965C01D5
:104B60008C814501880E911C8A149B0409F4F4CEB3
:104B7000023592E0190740F4D50114966C91C801F2
:104B800082559E4F0E9469280F5F1F4FBFEFAB1ADF
:104B9000BB0AEACF0E94B20DDFCE87E0B2CF0A8116
:104BA0001B811027012710278C814801880E911C3A
:104BB0005E01E5E0AE0EB11C0815190509F4CCCE76
:104BC00080E00838F1E01F0720F4C80186960E94B3
:104BD0005528D5018D935D010F5F1F4FEDCF0A81E1
:104BE0001B81102701271027FE0131965F018C8160
:104BF0004F01880E911C8A149B0409F4ADCE08382D
:104C0000F1E01F0738F4D50114966C91C80186961F
:104C10000E9469280F5F1F4FBFEFAB1ABB0AEBCF93
:104C20001F921FB61F9211248F939F93AF93BF9330
:104C300080916402811113C08091F4019091F5017B
:104C4000A091F601B091F7014196A11DB11D80938D
:104C5000F4019093F501A093F601B093F701BF9191
:104C6000AF919F918F911F901FBE1F9018957894C0
:104C70001F921FB61F9211248F939F93AF93BF93E0
:104C80008091F4019091F501A091F601B091F701A6
:104C90000196A11DB11D8093F4019093F501A0939D
:104CA000F601B093F701BF91AF919F918F911F9043
:104CB0001FBE1F9018951F920F920FB60F921124CE
:104CC0002F933F934F935F936F937F938F939F9314
:104CD000AF93BF93EF93FF938091E10082FF09C0F0
:104CE0008091E20082FF05C08091E1008B7F80937C
:104CF000E1008091DA0080FF24C08091D80080FF1D
:104D000020C08091DA008E7F8093DA008091D900F4
:104D100080FF9BC080E189BD82E189BD09B400FEAE
:104D2000FDCF81E080938B028091CA01811109C07F
:104D30000E9446090E94A8098091E2008460809345
:104D4000E2008091E10080FF17C08091E20080FFC7
:104D500013C08091E2008E7F8093E2008091E20098
:104D600080618093E2008091D80080628093D800B7
:104D700019BC85E080938B028091E10084FF29C0FB
:104D80008091E20084FF25C080E189BD82E189BD78
:104D900009B400FEFDCF8091D8008F7D8093D800AC
:104DA0008091E1008F7E8093E1008091E2008F7E10
:104DB0008093E2008091E20081608093E200809124
:104DC000C901882309F447C084E080938B02809155
:104DD0008B028091E10083FF27C08091E20083FF76
:104DE00023C08091E100877F8093E10082E080937F
:104DF0008B021092C9018091E1008E7F8093E100C7
:104E00008091E2008E7F8093E2008091E2008061D9
:104E10008093E20042E060E080E00E9471098091AE
:104E2000F00088608093F000FF91EF91BF91AF9107
:104E30009F918F917F916F915F914F913F912F91B2
:104E40000F900FBE0F901F90189519BC10928B02F7
:104E50001092CA0176CF8091E30087FF02C083E001
:104E6000B4CF81E0B2CF1F920F920FB60F921124F0
:104E7000FF920F931F932F933F934F935F936F93E3
:104E80007F938F939F93AF93BF93CF93DF93EF93D2
:104E9000FF9309EE10E0F8018081C091EC00C79506
:104EA000CC27C7958F70FC2EF82A1082C0EFD0E077
:104EB0008881877F888378940E94E510F8011082AA
:104EC000888188608883CF2DCF70C083FF91EF9158
:104ED000DF91CF91BF91AF919F918F917F916F9112
:104EE0005F914F913F912F911F910F91FF900F90E4
:104EF0000FBE0F901F90189587FB082E062687FD82
:104F0000819567FD61950E9449280EF4919507FCF3
:104F100081950895AA1BBB1B51E107C0AA1FBB1FA7
:104F2000A617B70710F0A61BB70B881F991F5A9535
:104F3000A9F780959095BC01CD01089597FB072EA8
:104F400016F4009407D077FD09D00E948A2707FC49
:104F500005D03EF4909581959F4F08957095619589
:104F60007F4F0895A1E21A2EAA1BBB1BFD010DC0A5
:104F7000AA1FBB1FEE1FFF1FA217B307E407F50709
:104F800020F0A21BB30BE40BF50B661F771F881FE5
:104F9000991F1A9469F760957095809590959B017B
:104FA000AC01BD01CF010895EE0FFF1F0590F491F4
:104FB000E02D09946927962769277827872778277E
:104FC00008950E94E927332312F48A1B9B0B0C944B
:104FD000FA27A29FB001B39FC001A39F700D811D4E
:104FE0001124911DB29F700D811D1124911D0895F2
:104FF0000E94E927B7FF0895821B930B08950E9432
:10500000E927A59F900DB49F900DA49F800D911D41
:1050100011240895B7FF0C94FF270E94FF27821BDD
:10502000930B08952F923F924F925F926F927F92CF
:105030008F929F92AF92BF92CF92DF92EF92FF92A8
:105040000F931F93CF93DF93CDB7DEB7CA1BDB0B54
:105050000FB6F894DEBF0FBECDBF09942A883988F9
:1050600048885F846E847D848C849B84AA84B98400
:10507000C884DF80EE80FD800C811B81AA81B9810C
:10508000CE0FD11D0FB6F894DEBF0FBECDBFED0120
:105090000895991B79E004C0991F961708F0961B94
:1050A000881F7A95C9F780950895F999FECF92BD2A
:1050B00081BDF89A992780B50895A6E1B0E044E053
:1050C00050E00C948F28A8E1B0E042E050E00C944E
:1050D0008F28262FF999FECF92BD81BDF89A0197AE
:1050E00000B4021639F01FBA20BD0FB6F894FA9A30
:1050F000F99A0FBE08950396272F0E946A280E94EE
:105100006928252F0E946A28242F0C946A2801966A
:10511000272F0E946A280C946928DC01CB01FC012E
:10512000F999FECF06C0F2BDE1BDF89A319600B400
:105130000D9241505040B8F70895FC014150504045
:1051400030F001900616D1F73197CF0108958827E6
:1051500099270895FB01DC0104C08D91019080190D
:1051600021F441505040C8F7881B990B0895F894DA
:10517000FFCFB507BD07C007C607DB07DB07DB07A7
:10518000DB07DB07DB07DB07DB07C907CE07D20737
:10519000D807E907EF07F307C311E911EF11E91188
:1051A000EF1142126412EF1160136D13231A231AC8
:1051B000771A771AF61A111B5B1A5B1A161B871BD4
:1051C000981B981BE2184D19EA18B418B818EE1875
:1051D000BC18F218FE18C8184619CC180219D018B5
:1051E00006192E19D4180A193519DA1810191819B0
:1051F000C018F618C418FA18DE18141924193E1924
:105200004419AE18E61854196D19911998199D1979
:10521000A219A719AC19B119B619BB19C019C5192A
:10522000C819CD19D019D319D619D919DC19DF1914
:10523000B0166C18701862186818741878187C18F2
:105240008E249224C824EF24FA2405250825082555
:1052500008259A249A24802583258725A825CA25F0
:06526000CD25CF25EF254E
:1052660001010201191A1B1C1D1E1F2021229A086A
:10527600E50C0D0D140D01BD05C3024022B68401D7
:105286006201AC00D601EF010F0200010202020228
:105296000606060909090909090F0F0F0F0F0F1551
:1052A600151518191919191919191919192324F085
:1052B6003435366667F1F6F7939600FF0100010074
:1052C60000FFFF0000010001FF0091F492F5E200EB
:1052D600E900EA00B500B600B700CD008301CC00B6
:1052E6008A01920194012102230224022502260248
:1052F60027022A02B300B4006F0070009F01CB01A1
:00000001FF
